:040000000200853243
:01000B0032C2
:0300130002139441
:03001B0002147557
:0100230032AA
:03002B00024D483B
:01003300329A
:03003B0002146844
:0300430002507BED
:03004B00023BCDA8
:01005300327A
:01005B003272
:01006300326A
:03006B000211B2CD
:030073000215492A
:03007B0002129DD1
:0300E30002007E9A
:05007E001202D080FE1B
:0A00E600C008858108C082C0837C39
:0300F000007D0090
:0E00F300C3EC9490ED6480948140030201E21E
:0E010100C374C89C74808DF063F08095F0503C
:0C010F000B7490C39CFE74019DFF8004E3
:04011B008C068D07BA
:0C011F00A8080886028A82C002C004C042
:0E012B0005C006C00712175ED007D006D0052B
:0B013900D004D00290E000E4F0A3F03E
:0E014400C00290E000E0FBA3E0FAC3EB9EEAED
:0E01520064808FF063F08095F0D0025022C0E0
:0E0160000290E000E0FBA3E0FA90E002EBF07A
:0E016E00A3EAF090E000E02401F0A3E03400EA
:05017C00F0D00280C379
:0E0181008A82C004C005C006C007121775D0E0
:0E018F0007D006D005D00490E000E4F0A3F005
:08019D0074C8C39EFAE49FFB45
:0E01A50090E000E0FEA3E0FFC3EE9AEF64805E
:0E01B3008BF063F08095F0501E90E000E0FEAF
:0E01C100A3E0FF90E002EEF0A3EFF090E0006C
:0B01CF00E02401F0A3E03400F080CB3E
:0501DA000CBC00010D4A
:0301DF000200F328
:0601E200850881D008220F
:0A01E800C00885810805810581C269
:0A01F200AF759F037AF87BFF7C00D5
:0301FC00BC08003C
:0A01FF00501DEC2406FDE434E0FE80
:0E0209008A828B83E493FFA3AA82AB838D824B
:070217008E83EFF00C80DE86
:0C021E00759F01D2AFAA080A7B007C404B
:0E022A007402C0E0E4C0E0E4C0E08A828B838E
:0E0238008CF012576415811581158190EBFB37
:09024600E0FAA3E0FB4A701FFA84
:03024F00BA0200F0
:0C0252005038AB080BEA2BF87401C39A7B
:0A025E002406F582E434E0F583E0A5
:05026800FBF60A80E234
:0A026D0090A4E275F0801245A7AAE4
:0C027700080AEA04F890EBFBE0FAA3E0B0
:09028300FCF6A808087B00A602A5
:0C028C00AA080A7B007C408A828B838CCD
:0C029800F01249EDA8080886028A037ADB
:0C02A40000AC080CEC04F886047D00ECB3
:0E02B0002AFAED3BFBE4C0E0C0E0C0E0C00273
:0D02BE00C00390FFFF123AA9E58124FB85E3
:0502CB000881D00822AB
:0702D000126BD61222A912E5
:0902D700242512172C90000112DD
:0D02E00000E690C20075F001E41255A590F3
:0602ED00248612146912C0
:0602F3002BAB12269B90CC
:0902F900A50775F0801245A790DD
:09030200A52075F0801245A71238
:09030B0017D7900000125F69127F
:0D031400464E1201E8E4C0E0C0E0C0E090F9
:0E032100EC2475F0001226DD15811581158182
:0E032F001262A4E4C0E0C0E0C0E090EC4875AB
:0E033D00F0001226DD15811581158112214672
:0E034B009000041200E61242F6AAE27B00AD1A
:0E035900E37C00EC2AFAED3BFB90E3CCEAF0EB
:0E036700A3EBF090E3E47401F090A55475F060
:0703750080124A091217DB98
:0E037C001217DF122DEDAA82AB83C3E49A7430
:0E038A00808BF063F08095F040E890A6D9E4F7
:0E03980093FAA3E493FB8A828B83120083AA5C
:0E03A60082AB8390E004EAF0A3EBF0EA4B6038
:0E03B400C7123C81124044AA82AB83ACF074A5
:0D03C20080C0E0E4C0E08A828B838CF012E2
:0E03CF00377AAA82AB831581158190E004EA8B
:0E03DD00F0A3EBF0C3E49A74808BF063F08021
:0E03EB0095F0508D8A828B8312403890A71CAB
:0E03F900E493FAA3E493FBC002C0038A828B54
:0B04070083120083D003D00202037CAC
:0EA4E20053657474696E67206D616E75616CF0
:0EA4F00020616464726573732066726F6D2064
:09A4FE006E6F64655F69640A0079
:0EA5070057656C636F6D6520746F20436F6E37
:0BA5150074696B6920322E342E0A009E
:0EA5200052756E6E696E67206F6E3A204E3770
:0EA52E003430204E616E6F53656E736F722075
:0EA53C00284343323433312D46313238292E34
:02A54A000A0005
:02A76A000000ED
:0A041200C008E581F5082408F58113
:0C041C00124044AA82AB83ACF0A8080890
:0C042800A60208A60308A604A80808867F
:0E043400820886830886F0126B39FDBD210216
:0204420080092F
:06044400BD22030206DAEE
:03044A0002086441
:0A044D00745AC0E074A5C0E074808A
:0C045700C0E0125F19158115811581A805
:0C0463000808740126FDE40836FE088637
:0C046F00078D828E838FF0E5082406F8CC
:0C047B00126B39F6E5082406F886068EA0
:0C048700077E00A80808740226FAE408AA
:0C04930036FB0886048A828B838CF0E51F
:09049F00082404F8126B39F6E59B
:0A04A800082404F886037C00E50830
:0C04B2002407F8EB4EF6EC4F08F6E508C6
:0D04BE002407F890EC0EE6F008A3E6F0A885
:0C04CB000808740626FBE40836FC0886CE
:0E04D700028B828C838AF0126B39FFFE7D004F
:0C04E500A80808740726FAE40836FC0892
:0C04F10086038A828C838BF0E5082405CA
:0C04FD00F8126B39F6E5082405F88603B8
:0D0509007C0090EC10EB4DF0EC4EA3F0E503
:0C0516000824FBF886030886040886020F
:0E0522008B828C838AF0126B39FE7D000BBB3E
:0305300000010CBB
:0E0533008B828C838AF0126B397A004205EAC3
:0E054100420690EC12EDF0A3EEF090E016E50D
:0B054F00082407F8E6F0A308E6F0908F
:0C055A00E018EDF0A3EEF0A80808740310
:0E05660026FAE40836FB0886048A828B838C12
:0E057400F0126B39FAFB7C0090E01CEBF0A358
:0C058200ECF090E04C7421F090E04DE5AE
:0A058E00082406F8E6F090E04EE5C0
:0C059800082404F8E6F090E04FEAF0A818
:0C05A4000808740426FAE40836FB0886F8
:0E05B000048A828B838CF0126B3990E050F03D
:0C05BE00A80808740526FAE40836FB08BB
:0E05CA0086048A828B838CF0126B3990E0518C
:0A05D800F090E052EFF090E053E5E0
:0A05E200082405F8E6F0A8080874E4
:0E05EC000826FAE40836FB0886048A828B8310
:0A05FA008CF0126B3990E054F0A869
:0C0604000808740926FAE40836FB088692
:0E061000048A828B838CF0126B3990E055F0D7
:0C061E00A80808740A26FAE40836FB0855
:0E062A0086048A828B838CF0126B3990E05626
:0C063800F0A80808740B26FAE40836FB52
:0D0644000886048A828B838CF0126B39903B
:0C065100E057F0A80808740C26FAE40832
:0E065D0036FB0886048A828B838CF0126B3980
:0E066B0090E058F0740DC0E0E4C0E090E04C68
:0E06790075F000123CB81581158190E010E07C
:0E068700FAA3E0FB8A0490E01FECF08B0290D7
:0E069500E01EEAF0E07B0090E01FE0FC7D003C
:0C06A300C002C003C004C0057470C0E0B9
:0C06AF0074A5C0E07480C0E0125F19E583
:0A06BB008124F9F581741EC0E0747B
:0C06C500E0C0E0E4C0E090E02B75F00025
:0906D100125504158115811581F3
:0A06DA007483C0E074A5C0E07480D2
:0C06E400C0E0125F19158115811581A876
:0C06F0000808740426FAE40836FB0886AB
:0E06FC00048A828B838CF0126B39FA7B00A883
:0C070A000808740326FCE40836FD08868D
:0E071600068C828D838EF0126B39FC7D00C044
:0C07240002C003C004C005749BC0E07458
:0C073000A5C0E07480C0E0125F19E581F4
:0C073C0024F9F581A80808740526FAE4E9
:0D0748000836FB0886048A828B838CF01231
:0C0755006B39FA7B00A80808740626FC2B
:0E076100E40836FD0886068C828D838EF01229
:0E076F006B39FC7D00C002C003C004C00574DD
:0A077D00B2C0E074A5C0E07480C0B3
:0C078700E0125F19E58124F9F581A80853
:0E07930008740226FAE40836FB0886048A82FF
:0E07A1008B838CF0126B39FD90EC0DE0FEEDB9
:0507AF00B50602806A9E
:0B07B400C002C003C00474C8C0E074A1
:0C07BF00A5C0E07480C0E0125F19158135
:0C07CB00158115817407C0E0E4C0E0A8AF
:0B07D700080886820886830886F0125E
:0E07E2003CB81581158190E018E0FDA3E0FE03
:0E07F0008D0790E01FEFF08E0590E01EEDF0FB
:0A07FE00741EC0E074E0C0E0E4C027
:0E080800E090E02B75F000125504158115816B
:080816001581D004D003D002CB
:0E081E008A828B838CF0126B39FA90EC0DE01D
:0C082C00FBEAB50333A80808740126FAA3
:0E083800E40836FB0886048A828B838CF0125B
:0C0846006B39FA7B00C002C00374DBC0F9
:0C085200E074A5C0E07480C0E0125F19E3
:06085E00E58124FBF58199
:06086400850881D0082286
:0A086A00C008E581F5082416F581A9
:0C087400124044AA82AB83ACF0A8080834
:0E088000A60208A60308A60412410FAD82A826
:0B088E00080886820886830886F012A6
:080899006B39FEBE2002800352
:0308A100020E1A2A
:0E08A4008D067F00C005EE24FFFDEF34FFFA45
:0C08B200A80808ED26FDEA0836FA0886C2
:0E08BE00038D828A838BF0126B39FD7A00C0A5
:0C08CC0005C006C007C005C00274F3C0E0
:0C08D800E074A5C0E07480C0E0125F195D
:0D08E400E58124FBF581D007D006D00590FA
:0808F100EC18E4F0A80808E58A
:0C08F900082404F9740126F7E40836090D
:0C090500F70809E6F7E5082404F88682EC
:0D0911000886830886F0126B39FB7A00A877
:0A091E000808E5082407F974022612
:0C092800F7E4083609F70809E6F7E508CF
:0E0934002407F886820886830886F0126B3945
:0C094200FC7D00E508240AF8EC4AF6ED04
:0C094E004B08F6E508240AF890EC0EE6D1
:0A095A00F008A3E6F0A80808E5087D
:0E096400240CF9740626F7E4083609F7080992
:0C097200E6F7E508240CF886820886836E
:0C097E000886F0126B39FB7A00A808080C
:0C098A00E508240FF9740726F7E408368E
:0C09960009F70809E6F7E508240FF886C9
:0E09A200820886830886F0126B39FC7D009077
:0C09B000EC10EC4AF0ED4BA3F0E508243D
:0C09BC00FBF8E5082412F9E6F70809E64C
:0C09C800F70809E6F7E5082412F886821B
:0C09D4000886830886F0126B39FDE508E8
:0C09E0002415F808A605187600E5082488
:0E09EC0012F8740126FBE40836FC0886028B24
:0C09FA00828C838AF0126B39FB7A00E5D6
:0C0A0600082415F8EB46F6EA0846F6E571
:0C0A1200082415F890EC12E6F008A3E6AA
:080A1E00F090EC17E4F0D005A4
:080A260090EC17E0FABA06009B
:0A0A2E005031EA2A2401F582E43475
:0A0A3800ECF583E0FAA3E0FBE5080B
:0E0A42002415F8E6B5020708E6B503028002A7
:020A500080061E
:060A520090EC187401F0A5
:090A580090EC17E02401F080C5C8
:0C0A610090EBFFE0FAA3E0FBE508240A9C
:0D0A6D00F8E6B5020808E6B50303020C1711
:0A0A7A0090EC18E0FABA01028003C4
:030A8400020C174A
:0E0A8700C006C007C005C006C0077467C0E007
:0E0A9500E4C0E0C0E0125F19158115811581E3
:0E0AA300D007D006D00590E00EE0FAA3E0FBED
:0E0AB10090EC10E0FCA3E0FEEAB5040BEBB500
:090ABF000607D007D006020BC4A3
:0D0AC800D007C00790E010E0FAA3E0FB901B
:0E0AD500EC12E0FCA3E0FEEAB5040BEBB50664
:080AE30007D007D006020BC486
:0C0AEB00D007D006C005C006C007740D7F
:0B0AF700C0E074A6C0E07480C0E012F4
:0E0B02005F19158115811581D007D006C00638
:0B0B1000C007C006C0077433C0E074CB
:0C0B1B00A6C0E07480C0E0125F19E58104
:0C0B270024FBF581D007D006D005A808FB
:0E0B330008ED26FAE40836FB088604C005909B
:0E0B4100EC0DE0FD8A828B838CF0124B6690E7
:0E0B4F00EC10E0FAA3E0FB90E00EEAF0A3EB5E
:0E0B5D00F090EC12E0FAA3E0FB90E010EAF05A
:0C0B6B00A3EBF0A80808740326FAE408C5
:0E0B770036FB0886048A828B838CF0126B3961
:0E0B8500FA7B0090E014EAF0A3EBF074012E6E
:0E0B9300FAE43FFBC005C006C007C002C00365
:0C0BA100A8080886820886830886F012E7
:0D0BAD003CB81581158190E03D75F00012F7
:0A0BBA005049D007D006D005D00541
:0A0BC400A80808E5082412F9ED2640
:0E0BCE00F7E4083609F70809E6F790EC0DE0A9
:0C0BDC00FAE5082412F8868208868308D7
:0E0BE80086F0EA124B6674012EFAE43FFBC061
:0C0BF60002C003A8080886820886830855
:0E0C020086F0123CB81581158190E03D75F02A
:070C100000125049020E1A08
:0B0C1700C005C006C007743EC0E074BA
:0C0C2200A6C0E07480C0E0125F19E581FC
:0A0C2E0024FBF581744DC0E074A6AC
:0E0C3800C0E07480C0E0125F191581158115AF
:090C460081D00590E0897408F0EA
:080C4F0090E089E0FAB5050010
:0C0C5700503FA80808EA26FAE40836FB23
:0E0C63000886048A828B838CF0126B39FA7B30
:0C0C710000C005C002C0037468C0E0743D
:0C0C7D00A6C0E07480C0E0125F19E581A1
:0E0C890024FBF581D00590E089E02401F08085
:010C9700B7A5
:0C0C980090EC0DE0FA7B00C002C0037479
:0A0CA4006CC0E074A6C0E07480C0CC
:0E0CAE00E0125F19E58124FBF581123C819074
:0E0CBC00EC10E0FAA3E0FB90E00EEAF0A3EBF0
:0E0CCA00F090EC12E0FCA3E0FD90E010ECF0E6
:0C0CD800A3EDF0A80808740326FCE40853
:0E0CE40036FD0886068C828D838EF0126B39E9
:0D0CF200FCFD7E0090E014EDF0A3EEF0900C
:0E0CFF00EC0EE0FDA3E0FE90E016EDF0A3EE9B
:0E0D0D00F090E018EDF0A3EEF090E01AEAF09E
:0C0D1B00A3EBF090E04C7421F0E50824FC
:0E0D270004F886820886830886F0126B3990E5
:0C0D3500E04DF0E5082407F886820886EF
:0C0D4100830886F0126B3990E04EF090B1
:0C0D4D00E04FECF0A80808740426FAE45B
:0D0D59000836FB0886048A828B838CF0121A
:070D66006B3990E050F0A88A
:0C0D6D000808740526FAE40836FB088626
:0E0D7900048A828B838CF0126B3990E051F06B
:0C0D8700E508240CF886820886830886A4
:090D9300F0126B3990E052F0E51A
:0C0D9C0008240FF886820886830886F081
:0E0DA800126B3990E053F07408C0E0E4C0E034
:0E0DB60090E04C75F000123CB815811581904C
:0E0DC400E010E0FAA3E0FB8A0490E01FECF0E0
:0E0DD2008B0290E01EEAF0E07B0090E01FE054
:0C0DE000FC7D00C002C003C004C005740C
:0A0DEC0070C0E074A5C0E07480C080
:0C0DF600E0125F19E58124F9F581741EFC
:0C0E0200C0E074E0C0E0E4C0E090E02B31
:0C0E0E0075F00012550415811581158146
:060E1A00850881D00822CA
:0A0E2000C008858108AA82AB83ACEC
:0E0E2A00F07D01126B39FEA3126B39FFBE0082
:060E380005BF0002800C62
:090E3E00BE4506BF0103020F4D81
:030E4700020F8A0D
:0B0E4A00C002C003C004746FC0E0745D
:0C0E5500A6C0E07480C0E0125F19158197
:0E0E610015811581D004D003D00290EBFD74F2
:050E6F0005F0A3E4F012
:0D0E740090EBFDE0FEA3E0FF20E71BEE2465
:0A0E810083F582EF34E0F583E4F01E
:050E8B001EBEFF011F67
:0A0E900090EBFDEEF0A3EFF080DA26
:0E0E9A0090E00EE4F0A3F090E01074FFF0A3DF
:0E0EA800F090E01274FFF0A3F090E014E4F07C
:0E0EB600A3F090E016E4F0A3F090E01874FFB3
:0E0EC400F0A3F090E01A74FFF0A3F090E01C91
:0C0ED200E4F0A3F0C002C003C004744CA4
:0C0EDE00C0E074A5C0E07480C0E0748027
:0E0EEA00C0E0E4C0E090E03D75F000124FC49F
:0B0EF800E58124FBF5817450C0E0741C
:0C0F0300A5C0E07480C0E07481C0E0E490
:0E0F0F00C0E090E02B75F00012547FE58124C5
:0E0F1D00FBF5817480C0E0E4C0E090E0217537
:0E0F2B00F000121EA315811581D004D003D052
:010F390002B5
:0E0F3A007D008A828B838CF07445124B66A377
:050F48007401124B666C
:0E0F4D00ED601E90E02175F000C002C003C0F0
:0E0F5B0004121F67E5828583F0D004D003D016
:050F69000245F07005D7
:050F6E007582018029DD
:0D0F730090E02175F000C002C003C0041220
:0A0F80001EDFD004D003D00280B0C1
:0D0F8A008A828B838CF0E4124B66A3E41284
:050F97004B66758203AA
:030F9C00D0082258
:04A54C006A08000099
:04A5500012040000F1
:06A554001BEC00000000FA
:0EA55A000A20476F7420612072657175657369
:08A5680074207563200A0D0048
:0EA570000A206E65787420253032782530324E
:05A57E0078200A0D0029
:0EA583000A20476F742061207472616E736D40
:0AA59100697373696F6E200A0D00F4
:0EA59B00200A2054656D70203D2025642E2579
:09A5A9003032752043200A0D0038
:0EA5B200200A202062617474657279203D20B9
:08A5C00025642025640A0D004A
:0EA5C8000A20476F7420612064617461206D69
:05A5D60073670A0D008F
:0EA5DB000A206D73672066726F6D2073656EC7
:0AA5E9006465723A2025730A0D0024
:0EA5F3000A20476F74206120726571756573D0
:0CA60100742062633A202564200A0D00DA
:0EA60D000A206368616E67696E672074686575
:0EA61B002063757272656E74207265766572CA
:0AA6290073652074626C200A0D00B6
:0BA633000A206E3A202564200A0D006A
:0EA63E000A20746865206E3A202564200A0DFB
:01A64C00000D
:0EA64D000A204920616D2064657374200A2084
:0DA65B0074686520706174683A200A0D0073
:04A6680025642D0038
:03A66C0025640062
:0EA66F000A5374617274696E6720434332347B
:0EA67D00333020524620746573742073756963
:08A68B0074652E2E2E0A0D004D
:02A76C000000EB
:02A76E0015AA2A
:0CA7700011AA12AA13AA14AA15AA16AA6C
:01A77C0005D7
:02A77D000000DA
:02A77F000000D8
:02A781000000D6
:01A7830000D5
:01A7840000D4
:01A7850000D3
:01A7860000D2
:01A7870000D1
:02A788000000CF
:09A78A00000000200E0000000098
:040F9F0053F4FE22E7
:040FA30053F4FE22E3
:040FA70043F40122EC
:030FAB00D29022BF
:030FAE00C29022CC
:070FB100A290E433F5822257
:040FB80043FE0122D1
:040FBC0053FEFE22C0
:070FC000438D01439A10224A
:0A0FC700538DFEE58D7003539AEF81
:010FD10022FD
:0C0FD2007401558DFA7B008A828B83220B
:040FDE00438C02221C
:040FE200538CFD220D
:0C0FE6007401558AFA7B008A828B8322FA
:060FF200C2EB758A00222B
:040FF80053F3EF229E
:040FFC0053F3EF229A
:0410000043F3102284
:03100400D2842271
:03100700C284227E
:07100A00A284E433F5822209
:0410110043FD102269
:0410150053FDEF2276
:0E101900438C1090E08AE04410F043B820228F
:0E10270090E08AE054EFF090E08AE0FA54F096
:0310350060012235
:04103800538CEF22C4
:0E103C0090E08AE0FA5302107B008A828B83D8
:01104A002283
:04104B00438C0122AF
:04104F00538CFE229E
:0C10530074105589FA7B008A828B83227E
:06105F00C2C575890022E4
:0D106500120FB1E582701990E08CF5F012C9
:0B1072004765AA82AB83EA4BB4010083
:08107D00E433FA7003FA80026B
:021085007A01EE
:09108700EA3395E08A82F5832228
:0C109000AA82AB83BA8105BB0002800677
:06109C00BA8206BB00034E
:0310A200020FD268
:0410A5009000002295
:0A10A900C008858108AA82AB83BA53
:0710B3008005BB000280086C
:0810BA00BA814ABB0047800E19
:0710C200120FDE120F9F1256
:0710C9000FBC900001803A0A
:0B10D000E50824FCF8E6084660251245
:0E10DB000FD2E5828583F045F0701CC0E0C0A6
:0E10E900E090E08C75F0001246B31581158181
:0810F700120FF2120FC080037A
:0310FF00120FC706
:051102009000018003D4
:0311070090000055
:03110A00D00822E8
:0D110D0012100AE582701990E090F5F012C2
:0B111A004765AA82AB83EA4BB40100DA
:08112500E433FA7003FA8002C2
:02112D007A0145
:09112F00EA3395E08A82F583227F
:0C113800AA82AB83BA8105BB00028006CE
:06114400BA8206BB0003A5
:03114A0002103C54
:04114D0090000022EC
:0A115100C008858108AA82AB83BAAA
:07115B008005BB00028008C3
:08116200BA8147BB0044800B79
:0B116A00120FF8121015900001803ADF
:0B117500E50824FCF8E608466025129F
:0E118000103CE5828583F045F0701CC0E0C095
:0E118E00E090E09075F0001246B315811581D7
:08119C0012105F12101980030C
:0311A400121027FF
:0511A70090000180032F
:0311AC00900000B0
:0311AF00D0082243
:0C11B200C020C0E0C0F0C082C083C002BA
:0E11BE00C003C004C005C006C007C000C001C9
:0E11CC00C0D075D000C2AFAAE27B00ADE3E454
:0E11DA002AFAED3BFB90E3D0EAF0A3EBF09095
:0E11E800E3E67401F0121053E5828583F045B2
:0E11F600F0602F90E09075F000124765E582E2
:0E1204008583F045F0601D7420C0E0E4C0E07A
:0E12120090E09075F0001246B31581158190A2
:08122000A69C75F0801230530A
:0E122800758900C2C590E3E6E0604B90E3A438
:0E123600E0FAA3E0FBA3E0FCA3E0FDAEE27F44
:0E12440000A9E3E42EFEE93FFF90E3D0E0F8BE
:0E125200A3E0F9EEC398FEEF99FFE4F8F9EE81
:0E1260002AFAEF3BFBE83CFCE93DFD90E3A4DD
:0E126E00EAF0A3EBF0A3ECF0A3EDF090E3E6C2
:02127C00E4F09C
:0E127E00D2AFD0D0D001D000D007D006D0051E
:0E128C00D004D003D002D083D082D0F0D0E0C6
:03129A00D020322F
:0C129D00C020C0E0C0F0C082C083C002CE
:0E12A900C003C004C005C006C007C000C001DD
:0E12B700C0D075D000C2AFAAE27B00ADE3E468
:0E12C5002AFAED3BFB90E3D0EAF0A3EBF090A9
:0E12D300E3E67401F0120FE6E5828583F04534
:0E12E100F0602F90E08C75F000124765E582FA
:0E12EF008583F045F0601D7420C0E0E4C0E08F
:0E12FD0090E08C75F0001246B31581158190BB
:08130B00A69375F08012305327
:0E131300758A00C2EB90E3E6E0604B90E3A425
:0E132100E0FAA3E0FBA3E0FCA3E0FDAEE27F58
:0E132F0000A9E3E42EFEE93FFF90E3D0E0F8D2
:0E133D00A3E0F9EEC398FEEF99FFE4F8F9EE95
:0E134B002AFAEF3BFBE83CFCE93DFD90E3A4F1
:0E135900EAF0A3EBF0A3ECF0A3EDF090E3E6D6
:02136700E4F0B0
:0E136900D2AFD0D0D001D000D007D006D00532
:0E137700D004D003D002D083D082D0F0D0E0DA
:03138500D0203243
:03A69300A5A680F9
:02A6960065104D
:02A69800A91007
:02A69A0090101E
:03A69C00AEA680E7
:02A69F000D119B
:02A6A100511155
:02A6A30038116C
:09A6A500427574746F6E203100DF
:09A6AE00427574746F6E203200D5
:0C138800AA83E58290E094F0A3EAF02232
:0C139400C020C0E0C0F0C082C083C002D6
:0E13A000C003C004C005C006C007C000C001E5
:0E13AE00C0D075D000AAE27B00ADE3E42AFABD
:0E13BC00ED3BFB90E3D0EAF0A3EBF090E3E60C
:0E13CA007401F0C28B90E094E0FAA3E0FB7C8B
:0C13D80080BA0008BB0005BC00028016B3
:0913E40074FAC0E07413C0E0903B
:0D13ED00E094E0C0E0A3E0C0E085C18222F2
:0E13FA0090E3E6E0604B90E3A4E0FAA3E0FB92
:0E140800A3E0FCA3E0FDAEE27F00A9E3E42E2A
:0E141600FEE93FFF90E3D0E0F8A3E0F9EEC35B
:0E14240098FEEF99FFE4F8F9EE2AFAEF3BFB91
:0E143200E83CFCE93DFD90E3A4EAF0A3EBF0FA
:0B144000A3ECF0A3EDF090E3E6E4F075
:0E144B00D0D0D001D000D007D006D005D004FC
:0D145900D003D002D083D082D0F0D0E0D0FC
:02146600203232
:011468003251
:0C146900AA83E58290E096F0A3EAF0224E
:0C147500C020C0E0C0F0C082C083C002F4
:0E148100C003C004C005C006C007C000C00103
:0E148F00C0D075D000AAE27B00ADE3E42AFADB
:0E149D00ED3BFB90E3D0EAF0A3EBF090E3E62A
:0E14AB007401F0C28F90E096E0FAA3E0FB7CA3
:0C14B90080BA0008BB0005BC00028016D1
:0914C50074DBC0E07414C0E09077
:0D14CE00E096E0C0E0A3E0C0E085F98222D6
:0E14DB0090E3E6E0604B90E3A4E0FAA3E0FBB0
:0E14E900A3E0FCA3E0FDAEE27F00A9E3E42E49
:0E14F700FEE93FFF90E3D0E0F8A3E0F9EEC37A
:0E15050098FEEF99FFE4F8F9EE2AFAEF3BFBAF
:0E151300E83CFCE93DFD90E3A4EAF0A3EBF018
:0B152100A3ECF0A3EDF090E3E6E4F093
:0E152C00D0D0D001D000D007D006D005D0041A
:0D153A00D003D002D083D082D0F0D0E0D01A
:02154700203250
:01154900326F
:0A154A00C008E581F5082408F581CA
:09155400E582FA20E0030215ED26
:0E155D0090E098E0FB90E099E0FCEB6C30E051
:0E156B001DABE27C00AEE3E4FD2BFBEE3CFC8E
:0E15790090E3D2EBF0A3ECF090E3E77401F006
:0215870080647E
:0C15890090E3E7E0605EC00290E3A8A8D9
:0C1595000808E0F6A3E008F6A3E008F662
:0E15A100A3E008F6ACE27D00AEE38E03E42C7E
:0E15AF00FFEB3DFB90E3D2E0FCA3E0FDEFC3B9
:0C15BD009CFFEB9DFB7C007D00A8080853
:0E15C900EF26FFEB0836FBEC0836FCED08368B
:0E15D700FD90E3A8EFF0A3EBF0A3ECF0A3ED82
:0815E500F090E3E7E4F0D0020E
:0715ED00EA20E1030216856C
:0E15F40090E098E0FB90E099E0FCEB6C30E1B9
:0E1602001DABE27C00AEE3E4FD2BFBEE3CFCF6
:0E16100090E3D4EBF0A3ECF090E3E87401F06B
:02161E008065E5
:0C16200090E3E8E0605FC00290E3ACE5FE
:0C162C00082405F8E0F6A3E008F6A3E0AF
:0E16380008F6A3E008F6ABE27C00AFE3E42B7B
:0E164600FBEF3CFC90E3D4E0FAA3E0FFEBC323
:0C1654009AFAEC9FFFE4FBFCE50824057B
:0E166000F8EA26FAEF0836FFEB0836FBEC0836
:0E166E0036FC90E3ACEAF0A3EFF0A3EBF0A3A0
:09167C00ECF090E3E8E4F0D00288
:07168500EA20E20302171640
:0E168C0090E098E0FA90E099E0FBEA6B30E223
:0E169A001DAAE27B00ADE3E4FC2AFAED3BFB67
:0E16A80090E3D6EAF0A3EBF090E3E97401F0D2
:0216B600805E54
:0A16B80090E3E9E0605890E3B0A869
:0C16C2000808E0F6A3E008F6A3E008F634
:0E16CE00A3E008F6AAE27B00AFE3E42AFAEFFD
:0E16DC003BFB90E3D6E0FEA3E0FFEAC39EFED8
:0C16EA00EB9FFF7A007B00A80808EE26AA
:0E16F600FEEF0836FFEA0836FAEB0836FB90E6
:0E170400E3B0EEF0A3EFF0A3EAF0A3EBF09059
:04171200E3E9E4F033
:0E17160090E099E0FA90E098E062028A821278
:061724004C39850881D05C
:02172A00082293
:09172C00124C1D90E099E4F090CC
:04173500E098F02226
:0E17390090E099E0FA90E098E06202EAF4FA9B
:0E174700F582C00212178E900190124C7CD0D9
:06175500028A8202178ED9
:03175B00024C1E1F
:0D175E00AA8290E098E0FBF4FCEA520490AF
:0A176B00E098EA4BF08C8202154A68
:0D177500AA8290E098E0FBEA5BFCEAF490A9
:09178200E0985BF08C8202154A2C
:03178B0002178EB4
:0D178E00AA8290E099E06AF08A8202154A72
:0E179B00AA82AB83EA4B600675820102175EDC
:0617A900758201021775B4
:0E17AF00AA82AB83EA4B600675820202175EC7
:0617BD007582020217759F
:0E17C300AA82AB83EA4B600675820402175EB1
:0617D10075820402177589
:0417D70085C9C922D5
:0417DB0043C90822D4
:0E17DF00740F55C944A0F5C9740F55C9445084
:0317ED00F5C92219
:0317F0000217DFFE
:0517F30075C903C2AF3F
:0417F800000217F8DC
:0A17FC00C008E581F5082407F58117
:0E18060090E09AE0FAA3E0FBA3E0FCEA4B4C72
:0C181400700A90E09DE4F0A3F00219932C
:0C182000124CCEAA82AB83E5082403F82A
:0E182C00A60208A60390E09AE0FCA3E0FDA34C
:0C183A00E0FEE5082405F8A60408A60559
:0C18460008A606E5082405F8868208863E
:0E185200830886F0126B39FFA3126B39FAE59A
:0C186000082405F8740226FBE40836FC9E
:0E186C000886058B828C838DF0126B39FBA3EE
:0C187A00126B39FCEB2FFFEC3AFAE5088A
:0C1886002403F8EFC396FFEA0896FAA8C6
:0A1892000808A60708A602E50824CE
:0E189C0005F8740426FCE40836FD0886068C68
:0E18AA00828D838EF0126B39FCA3126B39FD18
:0C18B800A3126B39FEE5082405F8A60415
:0618C40008A60508A606B7
:0C18CA00E5082405F8B6000B08B600077E
:0718D60008B6000302197FB0
:0C18DD00E5082405F8868208868308864A
:0B18E900F0126B39FCA3126B39FDE517
:0C18F400082405F8740226FEE40836FF04
:0E1900000886028E828F838AF0126B39FAA35A
:0C190E00126B39FBEA2CFEEB3DFFE508F4
:0C191A002403F8EEC396FEEF0896FFA829
:0C1926000808C3EE96EF0896501BEA2C50
:0C193200FCEB3DFDE5082403F8ECC39637
:0C193E00FCED0896FDA80808A60408A609
:01194A000597
:0C194B00E5082405F8740426FAE40836C8
:0E195700FB0886048A828B838CF0126B39FAAF
:0B196500A3126B39FBA3126B39FCE5E9
:0C197000082405F8A60208A60308A60437
:03197C000218CA84
:09197F00E5082403F8A908099009
:0B198800E09DE726F009E70836A3F019
:06199300850881D0082246
:0A199900C008E581F508240CF58173
:0E19A300AA82AB83ACF07D01126B39FEA31259
:0B19B1006B39FFBE0005BF0002800B79
:0819BC00BE5A05BF0002801EA7
:0319C400021D867B
:0919C70090E09AE4F0A3F0A3F013
:0E19D0007D008A828B838CF0745A124B66A3C2
:0419DE00E4124B665E
:0919E200ED7006758201021D98EA
:0A19EB00E50824FDF8B6870280032A
:0319F500021B9042
:0C19F800E50824FAF88605088606088633
:0C1A040007E5082407F8A60508A6060858
:021A1000A60727
:0E1A120090E09AE0FDA3E0FEA3E0FFED4E4F52
:0E1A2000606EC002C003C00474072DFAE43EDD
:0E1A2E00FB8F048A828B838CF0126B39FAA333
:0A1A3C00126B39FBA3126B39FCE5B5
:0C1A4600082407F8E6B5020C08E6B5031A
:081A52000708E6B50402800854
:081A5A00D004D003D002802E5D
:0E1A6200D004D003D00274042DFDE43EFE8DAE
:0E1A7000828E838FF0126B39FDA3126B39FE4C
:0E1A7E00A3126B39FF90E09AEDF0A3EEF0A3F7
:041A8C00EFF0808275
:0E1A900090E09AE0FDA3E0FEA3E0FFED4E4FD4
:051A9E0070030219D0E5
:0B1AA300A80808A60508A60608A6076C
:0C1AAE00A80808740426FDE40836FE08B1
:0C1ABA0086078D828E838FF0E508240AD9
:0D1AC600F8126B39F6A3126B3908F6A31263
:0C1AD3006B3908F6E508240AF8E608461E
:071ADF00084670030219D054
:0C1AE600C002C003C004E508240AF87424
:0E1AF2000726FAE40836FB0886048A828B83F6
:0D1B00008CF0126B39FAA3126B39FBA312A3
:0C1B0D006B39FCE5082407F8E6B5020C73
:0C1B190008E6B5030708E6B504028008E2
:081B2500D004D003D00280417E
:0C1B2D00E508240AF8740426FAE40836DF
:0E1B3900FB0886048A828B838CF0126B39FACB
:0E1B4700A3126B39FBA3126B39FC8D828E83C7
:0E1B55008FF0EA124B66A3EB124B66A3EC1264
:0B1B63004B66D004D003D002021AAE83
:0E1B6E008D828E838FF0126B39FDA3126B39BE
:0C1B7C00FEA3126B39FFA80808A605089C
:081B8800A60608A607021AAE2A
:0A1B9000E50824FDF8B68202800388
:031B9A000219D05D
:0C1B9D00E5082404F8E4F608F6087600D9
:0C1BA90090E09AE0FDA3E0FEA3E0FFA89E
:0A1BB5000808A60508A60608A60702
:0C1BBF00A80808B6000B08B6000708B61E
:051BCB0000030219D027
:0C1BD000A8080886820886830886F0C0FA
:0E1BDC0002C003C004124765E5828583F0D085
:0C1BEA0004D003D00245F07003021D443B
:0C1BF600C002C003C004A8080874072641
:0E1C0200FDE40836FE0886078D828E838FF083
:0B1C1000126B39FAA3126B39FBA31210
:0C1C1B006B39FCC004C005C006C007A85F
:0C1C27000808E6C0E008E6C0E008E6C0DF
:0E1C3300E07488C0E08A828B838CF0122E2A27
:0E1C4100AA82AB83E58124FCF581D007D00692
:0E1C4F00D005D004EA4BD004D003D0026003CD
:031C5D00021D3530
:0D1C60008D828E838FF0E4124B66A3E41298
:081C6D004B66A3E4124B66E58F
:0C1C7500082404F8E6084608466054C045
:0C1C810002C003C004E5082404F8740449
:0C1C8D0026FDE40836FE088607A80808BB
:0E1C9900740426FAE40836FB0886048A828B5F
:0E1CA700838CF0126B39FAA3126B39FBA31277
:0E1CB5006B39FC8D828E838FF0EA124B66A392
:0E1CC300EB124B66A3EC124B66D004D003D09C
:031CD10002802D61
:0C1CD400A80808740426FDE40836FE0889
:0E1CE00086078D828E838FF0126B39FDA31262
:091CEE006B39FEA3126B39FF9063
:0A1CF700E09AEDF0A3EEF0A3EFF089
:0C1D0100A80808740426FDE40836FE085B
:0E1D0D0086078D828E838FF0E4124B66A3E46E
:0E1D1B00124B66A3E4124B66C002C003C00464
:0C1D29001217FCD004D003D002021B9D56
:0E1D3500C002C003C004121D9ED004D003D013
:011D4300029D
:0A1D4400A80808E5082404F9E6F7F2
:0C1D4E000809E6F70809E6F7A808087481
:0E1D5A000426FDE40836FE0886078D828E837F
:0D1D68008FF0126B39FDA3126B39FEA31230
:0C1D75006B39FFA80808A60508A60608A0
:051D8100A607021BBFD4
:0D1D86008A828B838CF0E4124B66A3E4127A
:051D93004B66758203A0
:061D9800850881D008223D
:091D9E0090EC2475F000022EF512
:0A1DA700C008858108C082C083C017
:0C1DB100F0121D9EA80808740726FDE42F
:0D1DBD000836FE0886078D828E838FF01297
:0A1DCA006B39FAA3126B39FBA31268
:0E1DD4006B39FCEA4B4C606290E09AE0FAA397
:051DE200E0FBA3E0FCA2
:0B1DE700BA0008BB0005BC0002804CE5
:0C1DF200A80808E6B5020C08E6B50307D7
:071DFE0008E6B504028002B3
:021E0500800655
:061E07001217FC021E9DF3
:0E1E0D00C005C006C00774042AFDE43BFE8C2D
:0D1E1B00078D828E838FF0126B39FDA312AC
:0E1E28006B39FEA3126B39FF8D028E038F04FF
:081E3600D007D006D00580A9F9
:0E1E3E0090EC45E0FAA3E0FBA3E0FC8D828E61
:0E1E4C00838FF0EA124B66A3EB124B66A3ECF9
:0C1E5A00124B66A80808740426FAE4087D
:0E1E660036FB08860490E09AE0FDA3E0FEA3A0
:0E1E7400E0FF8A828B838CF0ED124B66A3EEAA
:091E8200124B66A3EF124B66A897
:0C1E8B00080890E09AE6F008A3E6F008D2
:061E9700A3E6F01217FCA7
:061E9D00850881D0082237
:0A1EA300C008858108AA82AB83AC59
:0C1EAD00F0C002C003C004E50824FCF8EB
:0E1EB900E6C0E008E6C0E08A828B838CF0125F
:0E1EC70046B315811581D004D003D0028A8263
:0A1ED5008B838CF0121DA7D00822A9
:0D1EDF00AA82AB83ACF0C002C003C00412A5
:0E1EEC004701D004D003D0028A828B838CF091
:031EFA00021DA71F
:0D1EFD00AA82AB83ACF0C002C003C0041287
:0E1F0A00473DD004D003D0028A828B838CF036
:031F1800021DA700
:0A1F1B00C008858108C082C083C0A1
:0C1F2500F0A8080886820886830886F071
:0A1F3100126B39FDA3126B39FEE5B7
:0C1F3B000824FCF88607088602EF2DFD44
:0C1F4700EA3EFEA808088682088683088F
:0C1F530086F0ED124B66A3EE124B6612F6
:061F5F0017FC850881D08B
:021F6500082250
:0E1F6700AA82AB83ACF074072AFAE43BFB8A33
:0E1F7500828B838CF0126B39FAA3126B39FB4E
:0E1F8300A3126B39FCE4BA0007BB0004BC00DB
:021F9100010449
:091F9300FA3395E08A82F58322FD
:0E1F9C00AA82AB83ACF0126B39FDA3126B3935
:0E1FAA00FE74022AFAE43BFB8A828B838CF0E1
:0E1FB800126B39FAA3126B39FBEA2DFDEB3EDA
:051FC6008D82F583226D
:0D1FCB00126B39FAA3126B398A82F583225A
:0E1FD80090E09AE0FAA3E0FBA3E0FCE4BA007C
:081FE60007BB0004BC0001046C
:041FEE00FAB4010040
:0A1FF200E433FA7B008A828B83221D
:0D1FFC00121FD8E5828583F045F0600A9041
:09200900E09DE0FAA3E0FB800475
:042012007A007B00D5
:052016008A828B832289
:0A201B00C008858108C082C083C0A0
:0D202500F090E09AE0FDA3E0FEA3E0FFA82C
:0C2032000808E6B5050C08E6B50607082E
:06203E00E6B50702800276
:02204400802EEC
:0E20460074042DFAE43EFB8F048A828B838C97
:0C205400F0126B39FAA3126B39FBA312D7
:0E2060006B39FC90E09AEAF0A3EBF0A3ECF0F1
:06206E001217FC0220FC29
:0B207400BD0008BE0005BF0002803860
:0E207F0074042DFAE43EFB8F048A828B838C5E
:0C208D00F0126B39FAA3126B39FBA3129E
:0C2099006B39FCA80808E6B5020C08E64C
:0A20A500B5030708E6B50402800841
:0820AF008A058B068C0780BD39
:0D20B700ED4E4F604074042DFDE43EFEA888
:0C20C4000808740426FAE40836FB0886BD
:0D20D000048A828B838CF0126B39FAA31204
:0E20DD006B39FBA3126B39FC8D828E838FF062
:0C20EB00EA124B66A3EB124B66A3EC124A
:0520F7004B661217FC0E
:0C20FC00A80808740426FAE40836FB0863
:0E21080086048A828B838CF0E4124B66A3E47B
:09211600124B66A3E4124B66A80B
:0C211F000808740726FAE40836FB08865E
:0E212B00048A828B838CF0E4124B66A3E412CC
:082139004B66A3E4124B66851E
:052141000881D0082216
:09A793000000009919000000000B
:09214600123007AA82AB83ACF051
:0E214F00EA4B4C605E74052AFDE43BFE8C07F3
:0E215D008D828E838FF0126B39FDA3126B39C9
:0E216B00FEC002C003C004C005C0067401C05F
:0A217900E0E4C0E0748DC0E07421C2
:0A218300C0E0C005C00690008122F4
:0E218D0015811581D006D005D004D003D002F4
:0E219B008A828B838CF0123019AD82AE83AF36
:0921A900F08D028E038F04809D6D
:0E21B200AAE27B00ADE37C00EC2AFAED3BFBD9
:0E21C00090E3E0EAF0A3EBF090E3EE7401F0A0
:0121CE0022EE
:0A21CF00C008E581F5082404F5813D
:0921D900123007AA82AB83ACF0BE
:0E21E200EA4B4C605C74052AFDE43BFE8C0762
:0E21F0008D828E838FF0126B39FDA3126B3936
:0E21FE00FEC002C003C004C005C006E4C0E07D
:0A220C00C0E0741EC0E07422C0E0C0
:08221600C005C0069000812202
:0E221E0015811581D006D005D004D003D00262
:0E222C008A828B838CF0123019AD82AE83AFA4
:09223A00F08D028E038F04809FD9
:0A22430090E3EEE0605A90E3C4A8B7
:0C224D000808E0F6A3E008F6A3E008F69D
:0E225900A3E008F6AAE27B00AFE37E00EE2AC7
:0E226700FAEF3BFB90E3E0E0FEA3E0FFEAC3EA
:0C2275009EFEEB9FFF7A007B00A808088B
:0E228100EE26FEEF0836FFEA0836FAEB0836C6
:0E228F00FB90E3C4EEF0A3EFF0A3EAF0A3EBA4
:06229D00F090E3EEE4F016
:0622A300850881D008222D
:03A79C002CA78067
:03A79F0093A680FE
:06A7A2009CA680000000EF
:0322A900023BA84D
:0A22AC00C00885810805810581AA9C
:0C22B60082AB83ACF0A80808E4F608F640
:0E22C20090E0A3E0FFA3E0FDA3E0FEEF4D4E91
:0A22D0007008A808087601087600DF
:0E22DA0074022AFDE43BFE8C078D828E838FFA
:0C22E800F0E50824F8F8E6124B66A308A5
:0E22F400E6124B6674042AFDE43BFE8C078D57
:0C230200828E838FF0E50824F5F8E612C7
:0C230E004B66A308E6124B66A308E6121B
:0C231A004B668A828B838CF0E50824FC63
:0C232600F8E6124B66A308E6124B669026
:0C233200E0A3EAF0A3EBF0A3ECF0A80895
:0C233E0008B6011108B6000DE50824FCEB
:09234A00F88682088683123BC16B
:09235300900000850881D00822E9
:0A235C00C008858108058105810590
:0E2366008190E0A3E0FAA3E0FBA3E0FCEA4BC9
:062374004C700302241F5F
:0C237A00A80808A60208A60308A6049004
:0C238600E0A3E4F0A3F0A3F0A8080874A2
:0E2392000226FDE40836FE0886078D828E8343
:0C23A0008FF0126B39FDA3126B39FEA800
:0C23AC000808740426FFE40836FA0886CE
:0D23B800038F828A838BF0126B39FFA31212
:0E23C5006B39FAA3126B39FBC005C006C007C6
:0A23D300C002C00374EFC0E07423E1
:0C23DD00C0E0C005C006A8080886820801
:0623E90086830886F02245
:0E23EF00158115811581D006D00590E0A3E080
:0E23FD00FAA3E0FBA3E0FCEA4B4C60168A82D8
:0E240B008B838CF0126B39FAA3126B39FB8AAB
:06241900828B83123BC11F
:06241F00850881D00822AF
:0D24250043FE0A43FD0443F3E075820E02FE
:02243200243450
:0C243400AA827B01C0E0C0A8C2AF7C00FF
:03244000BC0800D5
:0E2443005025EB5AFDEC6010ED600D8CF0059D
:04245100F0ED800228
:02245500C313AF
:04245700D5F0FBFDC4
:0E245B00ED24FF9282D293C293EB2BFB0C80F8
:01246900D69C
:0E246A00D291C291D0E053E080E5E042A8D0CC
:07247800E090E0A6EAF0226B
:07247F0090E0A6E0F58222C7
:0600B400E478FFF6D8FD20
:0500DE0090E12EE4F0AA
:09248600AA82BA0D0490000022A4
:0E248F0090E12EE0FB701DC00290E0A775F0FA
:0E249D0000125101AB82AC831581EB4C70250F
:0824AB0090E12E7401F0801D88
:0E24B300BA0A1AC00290E0A775F0001251019B
:0E24C100AA82AB831581EA4B600590E12EE400
:0124CF00F01C
:0D24D00090EC3975F000122EF590000122FD
:0A24DD00C00885810805810581AA69
:0D24E70082AB83ACF07D01126B39FEA312B5
:0B24F4006B39FFBE0005BF0002801422
:0824FF00BE6805BF0002806504
:09250700BE7A06BF00030226673C
:032510000226831D
:0E251300C002C003C0041226D0E582D004D05E
:0E25210003D00290E12DF090E1AFE4F0A3F0C2
:0D252F0090E0A775F000C002C003C00412C8
:0D253C00520EAE82AF83D004D003D002A8AF
:0A2549000808A60608A607A808085F
:0E255300B6FF1F08B6FF1B7D008A828B838CAB
:0B256100F07468124B66A3E4124B6696
:09256C00ED70C075820102269594
:0C257500A80808B60A0608B6000280405C
:0E25810090E1AFE0FEA3E0FFC3EE947FEF64B5
:0E258F00809480509BC002C003C00490E1AF56
:0C259D0074012EF0E43FA3F0EE242FFEAA
:0A25A900EF34E1FFA8080886028E57
:0E25B300828F83EAF0D004D003D00202252FDD
:0E25C100C002C003C00490E1AFE0FEA3E0FF43
:0D25CF0090E1AF74012EF0E43FA3F0EE2484
:0A25DC002FF582EF34E1F583E4F0FF
:0B25E600C002C003C004742FC0E074EA
:0C25F100E1C0E0E4C0E090E12DE0C0E0BB
:0E25FD0090000075F000122E2AE58124FCF5F6
:0E260B0081D004D003D00290EC45E0FEA3E0A5
:0E261900FFA3E0FAC004E4C0E0C0E0C0E0743B
:0E26270085C0E08E828F838AF0122E2AAA824E
:0E263500AB83E58124FCF581D004BA0005BB1F
:042643000002800809
:08264700D004D003D002802A68
:0E264F00D004D003D0027D008A828B838CF0F1
:0A265D00747A124B66A3E4124B6678
:0C266700ED600AE50824FDF8B68502804D
:012673000561
:05267400758201801CCD
:0A26790090E1AFE4F0A3F002252F7A
:0D2683008A828B838CF0E4124B66A3E41274
:052690004B667582039A
:06269500850881D0082237
:0A269B007480C0E074ADC0E074E08C
:0E26A500C0E0E4C0E090E0A775F000125082A3
:0E26B300E58124FCF581E4C0E0C0E0C0E090C9
:0E26C100EC3975F0001226DD158115811581AA
:0126CF0022E8
:09A7A800000000DD2400000000A7
:0D26D00090E1B1E0FA90E1B104F08A8222BD
:0A26DD00C008858108C082C083C0D8
:0E26E700F090EC42E0FDA3E0FEA3E0FF8D02C8
:0426F5008E038F04BD
:0C26F900A80808E6B5020C08E6B50307C7
:0727050008E6B50402802183
:0B270C00BA0008BB0005BC00028016EC
:0E2717008A828B838CF0126B39FAA3126B3915
:08272500FBA3126B39FC80CC10
:0C272D00A80808E6B5020C08E6B5030792
:0727390008E6B5040280026E
:02274000800314
:032742000227CC9F
:0C274500A8080886820886830886F0ED4C
:0B275100124B66A3EE124B66A3EF12C2
:06275C004B66A80808907E
:0D276200EC42E6F008A3E6F008A3E6F0A8BC
:0C276F000808740726FAE40836FB088608
:0D277B00048A828B838CF07401124B66A8D7
:0C2788000808740526FAE40836FB0886F1
:0E279400048A828B838CF0E4124B66A3E4125D
:0C27A2004B66E50824FBF8E6C0E008E602
:0C27AE00C0E008E6C0E07481C0E0A808AC
:0E27BA000886820886830886F0122E9EE5812E
:0427C80024FCF58177
:0627CC00850881D00822FF
:0A27D200C008858108C082C083C0E2
:0E27DC00F0E5812409F58190EC45E0FDA3E0D5
:0C27EA00FEA3E0FFE5082407F8A60508A0
:0C27F600A60608A607A808088682088628
:0E280200830886F0122F39E5828583F045F0B9
:052810007003022958CD
:0C281500A80808740726FDE40836FE0839
:0D28210086078D828E838FF0E4124B669047
:0C282E00EC42E0FDA3E0FEA3E0FFE508A3
:0B283A002404F8A60508A60608A6075F
:0C284500E5082404F8B6000A08B60006F6
:0628510008B600028069D8
:0A285700A80808E5082404F986F03B
:0E286100E7B5F0120886F009E7B5F00A088620
:08286F00F009E7B5F002802832
:0C287700A80808E6C0E008E6C0E008E69B
:0C288300C0E07487C0E0E5082404F8867B
:0E288F00820886830886F0122A4DE58124FC1B
:02289D00F581C3
:0C289F00E5082404F88682088683088679
:0E28AB00F0126B391818F6A3126B3908F6A359
:0728B900126B3908F680855F
:0C28C000A80808740326FDE40836FE0892
:0E28CC0086078D828E838FF0126B39FAA3126D
:0E28DA006B39FB8A058B067F80BD0008BE00AF
:0628E80005BF0002806A3A
:0A28EE00A80808E50824FBF986F0AD
:0E28F800E7B5F0120886F009E7B5F00A088689
:08290600F009E7B5F002804A78
:0C290E00A8080890EC45E6F008A3E6F0ED
:0C291A0008A3E6F0A80808740526FDE4F8
:0E2926000836FE088607C002C003E4C0E0C009
:0C293400E0C0E07483C0E0744EC0E074AA
:0C29400029C0E0C002C0038D828E838F8E
:02294C00F02277
:0A294E00E58124FCF581D003D002DE
:0C29580090EC42E0FAA3E0FBA3E0FCA836
:0C2964000808E6B5020C08E6B5030708F9
:06297000E6B5040280023E
:022976008022BD
:0E2978008A828B838CF0126B39FDA3126B39AF
:0E298600FEA3126B39FF90EC42EDF0A3EEF0D1
:06299400A3EFF0022A355A
:0C299A008A058B068C07E5082404F8A6CB
:0729A6000508A60608A607BC
:0C29AD00E5082404F8B6000A08B600068D
:0629B90008B60002807662
:0C29BF00E5082404F88682088683088658
:0C29CB00F0126B39FDA3126B39FEA31251
:0C29D7006B39FFA80808E6B5050C08E6FF
:0A29E300B5060708E6B507028002FA
:0229ED00803632
:0C29EF00A8080886820886830886F0127B
:0A29FB006B39FAA3126B39FBA3122B
:0C2A05006B39FCE5082404F88682088682
:0E2A1100830886F0EA124B66A3EB124B66A315
:062A1F00EC124B66801072
:0C2A2500E5082404F8A60508A60608A68B
:042A3100070229ADC2
:0C2A3500E5082407F890EC45E6F008A343
:0A2A4100E6F008A3E6F0850881D056
:022A4B0008225F
:0A2A4D00C008858108C082C083C064
:0C2A5700F0A80808740726FDE40836FE0D
:0E2A63000886078D828E838FF0126B39FA2061
:052A7100E003022B81CF
:0C2A7600C005C006C007A80808740326AD
:0E2A8200FAE40836FB0886048A828B838CF007
:0E2A9000126B39FAA3126B39FB8A048B057E98
:0E2A9E0080BC000FBD000CBE0009D007D006A2
:052AAC00D005022B81A2
:0C2AB100D007D006D005A8080890EC451E
:0E2ABD00E6F008A3E6F008A3E6F08D828E8313
:0E2ACB008FF07402124B66C005C006C007A84B
:0C2AD9000808740526FCE40836FD088699
:0C2AE50006C003C005C006C007E50824B9
:0E2AF100FAF8E6C0E008E6C0E008E6C0E0E55E
:0A2AFF000824FDF8E6C0E07419C0D9
:0C2B0900E0742BC0E0C002C0038C828D81
:042B1500838EF02299
:0E2B1900AA82E58124FCF581D007D006D00504
:0E2B2700D003EA3395E0FBBA020BBB0008D0E6
:072B350007D006D005801651
:0E2B3C00D007D006D005BA0305BB0002800802
:082B4A00E50824FDF8B6832420
:0C2B5200A80808E6C0E008E6C0E008E6BD
:0C2B5E00C0E0A80808868208868308866C
:0C2B6A00F01227D2158115811581800B17
:0B2B76008D828E838FF07401124B667D
:062B8100850881D0082246
:0E2B8700AA82AB83ACF090EC45E0C0E0A3E086
:0D2B9500C0E0A3E0C0E08A828B838CF012C8
:092BA20027D2158115811581224D
:0C2BAB0090E1B1748AF090E1B3E4F09086
:0C2BB700E1B2F090EC42F0A3F0A3F0902B
:092BC300EC45E4F0A3F0A3F022BC
:0A2BCC00C008858108058105810518
:0E2BD6008190E294E4F090EC42E0FAA3E0FB80
:0C2BE400A3E0FCA80808A60208A603084D
:022BF000A60439
:0C2BF200A80808B6000B08B6000708B6DB
:052BFE000003022C7E23
:0C2C0300A80808740826FDE40836FE0846
:0E2C0F0086078D828E838FF0126B396042A88B
:0C2C1D000808740726FAE40836FB088655
:0E2C2900048A828B838CF07401124B668D82BC
:0E2C37008E838FF0E4124B66E4C0E0C0E0C074
:0C2C4500E07482C0E0A8080886820886BF
:0D2C5100830886F0122A4DE58124FCF581F0
:0C2C5E00A8080886820886830886F01209
:0D2C6A006B391818F6A3126B3908F6A31287
:072C77006B3908F6022BF295
:062C7E00850881D0082248
:082C840090E1B2E0FA700122B8
:0C2C8C0090E1B3E0FB75F007A4FC24B459
:0C2C9800F582E434E1F583E090E295F071
:0A2CA400EC24B4FCE434E1FD8C8262
:0E2CAE008D83A3E0FEA3E0FFA3E0F890E29682
:0E2CBC00EEF0A3EFF0A3E8F08C828D83A3A3CB
:0E2CCA00A3A3E0FCA3E0FDA3E0FE90E299ECE2
:0E2CD800F0A3EDF0A3EEF07C000BBB00010CAE
:0E2CE600C0027420C0E0E4C0E08B828C831238
:0E2CF4006B55AB8215811581D00290E1B3EBD8
:0E2D0200F0EA1490E1B2F090E299E0FAA3E05A
:0E2D1000FBA3E0FCBA0008BB0005BC0002807B
:012D1E0003B1
:032D1F00022DB1D1
:0E2D220090EC42E0FDA3E0FEA3E0FF90E29CF7
:082D3000EDF0A3EEF0A3EFF0BB
:0E2D380090E29CE0FDA3E0FEA3E0FFBD0007DB
:072D4600BE0004BF000122E2
:0A2D4D0090E294E0FD6003122BCC2D
:0E2D570090E29CE0FDA3E0FEA3E0FF90E29678
:0E2D6500E0C0E0A3E0C0E0A3E0C0E090E29593
:0E2D7300E0C0E08D828E838FF0122A4DE58144
:0E2D810024FCF58190E29CE0FDA3E0FEA3E0BF
:0D2D8F00FF8D828E838FF0126B39FDA31231
:092D9C006B39FEA3126B39FF90A4
:0C2DA500E29CEDF0A3EEF0A3EFF08087BD
:0E2DB10090E295E0FDBD811474072AFEE43B1C
:0E2DBF00FF8C008E828F8388F07401124B66A9
:0E2DCD0090E296E0C0E0A3E0C0E0A3E0C0E02A
:0E2DDB00C0058A828B838CF0122A4DE581247C
:042DE900FCF5812252
:0A2DED0090E294E0FA6003122BCC90
:0B2DF700122C8490E1B2E0FA7B009007
:0E2E0200E294E0FC7D00EC2AFAED3B8A82F5BA
:022E100083221B
:0E2E120090E1B2E0FA7B0090E294E0FC7D00DB
:0A2E2000EC2AFAED3B8A82F58322CA
:0A2E2A00C008858108AA82AB83ACC2
:0E2E3400F090E1B2E0FDBD2005900001805954
:0E2E420090E1B3E0FEED2E541FFE90E29FF0F3
:0C2E5000EE75F007A4FE24B4F582E43413
:0A2E5C00E1F583E50824FDF8E6F037
:0A2E6600EE24B4FEE434E1FF8E8296
:0C2E70008F83A3E50824FAF8E6F0A3081D
:0E2E7C00E6F0A308E6F08E828F83A3A3A3A343
:0E2E8A00EAF0A3EBF0A3ECF090E1B2ED04F05F
:032E9800900000A7
:032E9B00D008223A
:0A2E9E00C008858108AA82AB83AC4E
:0E2EA800F090EC45E0FDA3E0FEA3E0FFC005C6
:0C2EB600C006C007E50824FAF8E6C0E0FA
:0C2EC20008E6C0E008E6C0E0E50824FDDA
:0E2ECE00F8E6C0E08A828B838CF0122A4DE574
:0E2EDC008124FCF581D007D006D00590EC458E
:0B2EEA00EDF0A3EEF0A3EFF0D0082203
:0E2EF500AA82AB83ACF0BA0007BB0004BC009D
:022F03000122A9
:0E2F050074072AFDE43BFE8C078D828E838FBD
:0A2F1300F0126B39FDBD01028003CE
:032F1D00BD0218DA
:0E2F200074082AFAE43BFB8A828B838CF074DF
:0A2F2E0001124B6690E2947401F06A
:012F38002276
:0E2F3900AA82AB83ACF074072AFAE43BFB8A51
:0E2F4700828B838CF0126B39FAE4BA0001041D
:042F5500FAB40100C9
:0A2F5900E433FA7B008A828B8322A6
:03A7B100000000A5
:03A7B400000000A2
:0A2F6300C008858108C082C083C049
:0C2F6D00F005810581E4FDFEE508240468
:092F7900F8E4F608F67B007C0088
:0C2F8200C005C00690E2A1E0FD7E00E565
:0C2F8E00082404F8C3E69D08E664808E69
:0E2F9A00F063F08095F0D006D0055057C005CA
:0A2FA800C006EB242DF582EC34EC9A
:0C2FB200F583E0FDA3E0FEA3E0FAA80810
:0E2FBE0008E6B5050C08E6B5060708E6B502FC
:032FCC000280067A
:062FCF00D006D005800AC7
:0A2FD500D006D0058D828E83802285
:0C2FDF0074032BFBE43CFCE5082404F820
:062FEB0006B60002080614
:0C2FF100E5082404F886050886068085A3
:042FFD008D828E83B0
:06300100850881D00822C1
:0E30070090EC2DE0FAA3E0FBA3E0FC8A828BA4
:04301500838CF02296
:0E301900122F63E5828583F02401FAE435F07E
:0E302700FBC002C003900003124B7FAA82ABD5
:0C3035008315811581EA242DF582EB340F
:0C304100ECF583E0FAA3E0FBA3E0FC8ABE
:06304D00828B838CF0224F
:0C305300122F63AA82AB83EA249FFAEBE1
:0C305F0034E0FB8A828B83E0FC43048099
:0D306B008A828B83ECF090EC4875F0000237
:023078002EF533
:0A307A00C008858108C082C083C031
:0C308400F0E5812408F581A80808868288
:0C3090000886830886F01269C4C8E508B1
:0E309C002404C8A68208A6837F007D007E0063
:0230AA007A00AA
:0E30AC0090E2A1E0FB7C00C3EF9BED64808C02
:0B30BA00F063F08095F04003023168E5
:0B30C500C007C005EE242DF582EA34A0
:0C30D000ECF583E0FBA3E0FCA3E0FD8B2B
:0E30DC00828C838DF0126B39FBA3126B39FCD2
:0E30EA00A3126B39FDC002C005C006C007E589
:0C30F800082404F8E6C0E008E6C0E0C0D0
:0C31040003C004C005A8080886820886E5
:0E311000830886F0125600AB82AC83E5812462
:0E311E00FBF581D007D006D005D002D005D039
:0C312C0007EB4C7028EE242DF582EA34ED
:0A313800ECF583E5082406F8E0F644
:0C314200A3E008F6A3E008F6E508240668
:0B314E00F886820886830886F0801552
:0C31590074032EFEE43AFA0FBF00010DD3
:033165000230AC89
:0631680090000075F0006C
:06316E00850881D0082253
:0A317400C00885810805810581056A
:0E317E0081AA82AB83ACF07D01126B39FEA3F7
:0C318C00126B39FFBE0005BF0002801569
:09319800BE7806BF000302329C60
:0931A100BE7F06BF00030233717A
:0331AA000233D419
:0E31AD00C002C003C0041226D0E582D004D0B8
:0E31BB0003D00290E2A0F090E2A2E4F0A3F0B4
:0E31C900C002C003C00490E2A2E0FEA3E0FF3B
:0E31D700C004C006C007C006C0079000031267
:0E31E5004B7FAA82AB8315811581D007D006DF
:0A31F300D004EA242DF582EB34EC41
:0C31FD00F583A80808E0F6A3E008F6A39C
:0C320900E008F6A80808B6001008B6009F
:0D3215000C08B60008D004D003D00280637E
:0A322200EE249FF582EF34E0F583FF
:0C322C00E4F0A80808740526FAE408364F
:0E323800FB0886048A828B838CF0126B39FAB5
:0E324600A3126B39FBC002C003C004E4C0E059
:0A325400C0E07466C0E07432C0E010
:08325E00C002C00390008022B1
:0E32660015811581D004D003D00290E2A2E0C1
:0E3274002401F0A3E03400F0D004D003D00217
:033282000231C94D
:0532850090E2A1EEF053
:0E328A007D008A828B838CF07478124B66A3D1
:04329800E4124B668B
:09329C00ED70067582010233E6B3
:0E32A50090E2A4E4F0A3F090E2A2E4F0A3F023
:0E32B300C002C003C00490E2A2E0FEA3E0FF50
:0E32C10090E2A1E0FA7B00C3EE9AEF64808BEE
:0E32CF00F063F08095F0D004D003D0024003ED
:0332DD000233C3F6
:0C32E000C002C003C004EE249FF582EF82
:0C32EC0034E0F583E0D004D003D00220D1
:0532F800E7030233B4FE
:0E32FD00C002C003C004C002C003C004C0066B
:0E330B00C007900003124B7FAE82AF83158186
:0C3319001581D004D003D002EE242DF565
:0C33250082EF34ECF583E0FEA3E0FFA390
:0E333100E0FAC004C006C007C00290E2A0E0AF
:0E333F00C0E090000075F000122E2AAA82ABAA
:0E334D0083E58124FCF581D004EA4BD004D046
:0E335B0003D0027029FD8A828B838CF0747F70
:08336900124B66A3E4124B664F
:0C337100ED601090E2A0E0FDE50824FDF6
:07337D00F8E6B5050280052A
:05338400758201805D6F
:0C33890090E2A2E0FDA3E0FEED249FFD19
:0C339500EE34E0FE8D828E83E0FF5307D3
:0E33A1007F8D828E83EFF090E2A4E02401F095
:0533AF00A3E03400F072
:0D33B40090E2A2E02401F0A3E03400F0025A
:0233C10032B325
:0E33C30090E2A4E0FDA3E0FE4D60030232A5FF
:0333D10002328A3B
:0D33D4008A828B838CF0E4124B66A3E41216
:0533E1004B667582033C
:0633E600850881D00822D9
:09A7B700000000743100000000F4
:0E33EC007582E612480F7582E612480F53E90B
:0233FA00DF22D0
:0733FC00AA82BA0102802041
:05340300BA0202800A7C
:05340800BA030280057B
:05340D00BA0535802224
:0E34120090DF02E04410F090DF03E0FA54EF88
:03342000F0803108
:0E34230090DF02E04418F090DF03E0FA44105E
:03343100F0802008
:0E34340090DF02E04408F090DF03E0FA54EF6E
:03344200F0800F08
:0E34450090DF02E054E7F090DF03E0FA54EF6E
:01345300F088
:04345400758201225A
:0A345800C008858108C082C083C04F
:01346200F079
:0E34630090DF62E0FD20E4F890E2A7E0FD308B
:07347100E60590FFFF80500B
:07347800ED20E7031239DF2C
:0C347F007582E712480FE50824FCF8866F
:08348B000574022DF5D97D0046
:0C3493008D067F00E50824FCF8C3EE96CF
:0C349F00EF0896501BA80808ED26FEE47C
:0D34AB000836FF0886028E828F838AF01299
:0734B8006B39F5D90D80D43A
:0934BF0075D90075D900900000D8
:0634C800850881D00822F6
:0834CE0090DF62E09000002293
:0E34D60090DF62E0FA5302047B008A828B834F
:0134E40022C5
:0B34E50090EC51E0FA6004900000221F
:0834F00090DF17E0FA54F7F039
:0D34F80090DF17E0FA530210BA010280F3D2
:08350500E5E930E7FB53BEFBD2
:0E350D00E5BE30E6FB90E2A7E4F090DF5474D8
:0E351B0001F090DF027402F090DF0374E2F022
:0E35290090DF047430F090DF05E4F090DF0CCA
:0D3537007432F090DF0D74F5F07582121201
:0C354400392E7582E712480F7582E612DE
:0E355000480FE4C0E0C0E0C0E0E4C0E0C0E02E
:0E355E0090FFFF123AA9E58124FBF5817582EA
:0E356C00001233FC75912053E9DF539BFC9055
:09357A00EC517401F090000122F3
:0A358300C008E581F5082408F58171
:0E358D00E4C0E0758200123B1BAA82AB8315DE
:0E359B0081BA0132BB002F90E55DE0FAA3E09B
:0E35A900FBA3E0FCA3E0FD0ABA00090BBB0087
:0635B700050CBC00010D33
:0E35BD0090E55DEAF0A3EBF0A3ECF0A3EDF0D7
:0635CB00900002023774BB
:0E35D10090DF62E0FA30E12F90E55DE0FAA3B2
:0E35DF00E0FBA3E0FCA3E0FD0ABA00090BBB71
:0735ED0000050CBC00010DFC
:0E35F40090E55DEAF0A3EBF0A3ECF0A3EDF0A0
:0636020090000202377483
:0A36080090E3EBE0605890E3B8A8EF
:0C3612000808E0F6A3E008F6A3E008F6C4
:0E361E00A3E008F6AAE27B00AFE3E42AFAEF8D
:0E362C003BFB90E3DAE0FEA3E0FFEAC39EFE64
:0C363A00EB9FFF7A007B00A80808EE263A
:0E364600FEEF0836FFEA0836FAEB0836FB9076
:0E365400E3B8EEF0A3EFF0A3EAF0A3EBF090E2
:04366200E3EBE4F0C2
:0D366600AAE27B00ADE3E42AFAED3BFB9005
:0E367300E3D8EAF0A3EBF090E3EA7401F075FF
:0736810082E312480F7A00FA
:0E36880090DF62E0FB20E4148A030ABB03001B
:0E369600500C90000AC002124C7CD00280E45E
:0E36A40090DF62E0FA20E40C7582E712480F16
:0636B2007A017B00800C90
:0C36B80090DF62E0FC20E4F87A007B0068
:0E36C40090E3EAE06063C002C00390E3B4E567
:0C36D200082405F8E0F6A3E008F6A3E0E9
:0E36DE0008F6A3E008F6ACE27D00ABE3E42CB6
:0E36EC00FCEB3DFD90E3D8E0FAA3E0FBECC35D
:0C36FA009AFAED9BFBE4FCFDE5082405BA
:0E370600F8EA26FAEB0836FBEC0836FCED0874
:0E37140036FD90E3B4EAF0A3EBF0A3ECF0A3D3
:0B372200EDF090E3EAE4F0D003D002E9
:0D372D00ACE27D00AFE3E42CFCEF3DFD902D
:0E373A00E3DAECF0A3EDF090E3EB7401F09015
:0E374800E565E0FCA3E0FDA3E0FEA3E0FF0CBE
:0C375600BC00090DBD00050EBE00010FF7
:0E37620090E565ECF0A3EDF0A3EEF0A3EFF020
:043770008A828B833B
:06377400850881D0082247
:0A377A00C008858108C082C083C02A
:08378400F0ADD9747FB505001A
:0E378C00503290E555E0FAA3E0FBA3E0FCA369
:0E379A00E0FD0ABA00090BBB00050CBC0001E3
:0137A8000D13
:0E37A90090E555EAF0A3EBF0A3ECF0A3EDF0F1
:0937B7001233EC900000023928E5
:0537C0007404B50500D2
:0E37C500403290E551E0FAA3E0FBA3E0FCA344
:0E37D300E0FD0ABA00090BBB00050CBC0001AA
:0137E1000DDA
:0E37E20090E551EAF0A3EBF0A3ECF0A3EDF0BC
:0937F0001233EC900000023928AC
:0D37F9008D067F00EE24FEFEEF34FFFFE59D
:0C3806000824FCF8C3E69E08E69F503240
:0E38120090E54DE0FAA3E0FBA3E0FCA3E0FD8F
:0D3820000ABA00090BBB00050CBC00010D2D
:0E382D0090E54DEAF0A3EBF0A3ECF0A3EDF074
:09383B001233EC90000002392860
:043844001D1D7E00C8
:04384800EEB50500D4
:0C384C00501FC005A80808EE26FFE40885
:0E38580036FD0886028F828D838AF0E5D91234
:073866004B660ED00580DB6C
:0E386D00E5D924D3FAE5D9FB30E75DEA3395BF
:0E387B00E0FCC003C005C002C0047582041248
:0E388900426E15811581D005D00353037F7A5E
:0E38970000C005C003C00275820312426E1508
:0E38A500811581D00590E569E0FAA3E0FBA350
:0E38B300E0FCA3E0FE0ABA00090BBB00050C06
:0438C100BC00010E38
:0E38C50090E569EAF0A3EBF0A3ECF0A3EEF0BF
:0238D300803142
:0E38D50090E559E0FAA3E0FBA3E0FCA3E0FEBF
:0D38E3000ABA00090BBB00050CBC00010E69
:0E38F00090E559EAF0A3EBF0A3ECF0A3EEF0A4
:0838FE001233EC90000080225F
:0E39060090DF62E0FA53020CBA040E90DF5319
:0B391400E0FA7007C0051233ECD0058C
:09391F0053E9DF7A008D828A83EE
:06392800850881D0082291
:05392E00AA82BA0B00A3
:073933004007741AB5020001
:02393A00500437
:04393C007582FF226F
:0E3940007582FFC00212480F7582E512480F13
:0E394E00D0028A037C00EB24F5FBEC34FFFC76
:0E395C00C002C003C004900005124B7FAD8274
:0E396A00AE83158115818D038E0474652BFBD1
:0D39780074013CFC43044090DF10ECF09023
:0E398500DF11EBF07582E212480FD0028A8249
:013993002211
:07399400AA827464B5020071
:06399B0050047582FF22BA
:0E39A100EA75F01FA4FBACF0C0027464C0E035
:0E39AF00E4C0E08B828C83127746AD82AE833B
:0E39BD0015811581D0028D038E0474602BFBE2
:0D39CB0074A13C90DF0AF090DF0BEBF09050
:0739D800E2A6EAF08A822258
:0E39DF0090E2A7E0FA20E73490DF4F747FF00B
:0E39ED0090DF0674D2F090E2A774804AF0904A
:0739FB00DF17E0FA54F7F0BA
:083A0200E5E930E7FB53BEFBD0
:0E3A0A00E5BE30E6FB7582E212480F7582E6DB
:033A180012480F42
:0E3A1B00AAE27B00ADE37C00EC2AFAED3BFB57
:0E3A290090E3DAEAF0A3EBF090E3EB7401F027
:043A370090000122D8
:0D3A3B007582FF12480F7582E512480F904A
:0D3A4800DF17E0FA4408F090E2A7E4F090E8
:0E3A5500E3EBE0604B90E3B8E0FAA3E0FBA3E4
:0E3A6300E0FCA3E0FDAEE27F00A9E3E42EFE4E
:0E3A7100E93FFF90E3DAE0F8A3E0F9EEC39836
:0E3A7F00FEEF99FFE4F8F9EE2AFAEF3BFBE8C0
:0E3A8D003CFCE93DFD90E3B8EAF0A3EBF0A3AA
:0A3A9B00ECF0A3EDF090E3EBE4F093
:043AA500900001226A
:0A3AA900C008858108AA82AB839053
:0C3AB300DF4BEBF090DF4CEAF0E508245C
:0C3ABF00FCF890DF4D08E6F0E50824FC60
:0C3ACB00F886027B0090DF4EEAF0E50870
:0E3AD70024F9F8B6000A08B6000608B6000288
:023AE50080312E
:063AE7007D437EDF7F003D
:033AED00BF08000F
:0C3AF0005026E50824F9F8EF26FAE40857
:0E3AFC0036FB0886048A828B838CF0126B39AD
:0E3B0A00FA8D828E83F0A3AD82AE830F80D53C
:033B1800D00822B0
:0A3B1B00C0088581087A007582E277
:0E3B2500C00212480F900040124C7CD002E506
:093B33000824FDF8B600028045EB
:0C3B3C00E50824FDF8B6014790DF62E0C8
:083B4800FB30E0317B017C0041
:083B5000EB60387401B50400BC
:043B580050027B009C
:0E3B5C00900100C002C003C004124C7CD004D3
:0E3B6A00D003D00290DF62E0FD20E0047B007B
:023B78007A01D0
:033B7A000C80D3E9
:043B7D007A01800A3F
:0A3B810090DF62E0FB20E0027AFF13
:0C3B8B00EA3395E0FB8A828B83D008228D
:0B3B9700E582FA60067582E902480F23
:063BA2007582E802480FE5
:01A7C0000098
:0E3BA80075E409D2B9E5F120E60543FD088079
:013BB600030B
:033BB70043FE02C8
:073BBA0075E64453D8BF2259
:0C3BC100AA82AB838ADC8BDD43E6402245
:0C3BCD00C020C0E0C0F0C082C083C00275
:0E3BD900C003C004C005C006C007C000C00184
:0E3BE700C0D075D000C2B9AAE27B00ADE3E405
:0E3BF5002AFAED3BFB90E3D0EAF0A3EBF09050
:0E3C0300E3E67401F053E4BF53E6BF12235C06
:0E3C110090E3E6E0604B90E3A4E0FAA3E0FB52
:0E3C1F00A3E0FCA3E0FDAEE27F00A9E3E42EEB
:0E3C2D00FEE93FFF90E3D0E0F8A3E0F9EEC31C
:0E3C3B0098FEEF99FFE4F8F9EE2AFAEF3BFB52
:0E3C4900E83CFCE93DFD90E3A4EAF0A3EBF0BB
:0B3C5700A3ECF0A3EDF090E3E6E4F036
:0E3C6200D2B9D0D0D001D000D007D006D00506
:0E3C7000D004D003D002D083D082D0F0D0E0B8
:033C7E00D0203221
:0E3C810090E2E2E4F0A3F090E2E0E4F0A3F0C1
:0E3C8F0090E2E47430F090EC52E0FAA3E0FB17
:0E3C9D00A3E0FC90E39774302AF0E43BA3F020
:063CAB00A3ECF00241470A
:073CB10090E2E47430F02200
:0A3CB800C008858108C082C083C0E7
:0C3CC200F0123C81E50824FCF8C374807B
:0C3CCE0096E4089650067D807E00800A77
:0A3CDA00E50824FCF88605088606BC
:0E3CE40090E397E0FFA3E0FAA3E0FBC005C069
:0C3CF20006C005C006A80808E6C0E008EF
:0E3CFE00E6C0E008E6C0E08F828A838BF012F9
:0D3D0C0056C6E58124FBF581D006D0059058
:0C3D1900E2E0EDF0A3EEF08D828E8385D9
:053D25000881D0082216
:0A3D2A00C008E581F5082407F581C3
:0D3D34001240C1E5828583F045F0604C121D
:0C3D4100410FA808080808A68208A68305
:0E3D4D001240FDAC82AD83AEF090EC52E0FF70
:0E3D5B00A3E0FAA3E0FB74302FFFE43AFAE590
:0C3D6900082403F8E6C0E008E6C0E0C053
:0E3D750004C005C0068F828A838BF01256C6EA
:093D8300E58124FBF581023E2FCD
:0E3D8C0090E2E2E0FAA3E0FB4A7003023E2F51
:0E3D9A0012410FAA82AB8374302AFAE43BFB7D
:083DA800A80808763008760037
:0C3DB000A80808C3E69A08E664808BF0BF
:0E3DBC0063F08095F05065C002C00390EC5299
:0C3DCA00E0FEA3E0FFA3E0FAA80808E573
:0C3DD600082405F9E62EF708E63F09F77F
:0C3DE20009A70290E2E2E0FBA3E0FCA8CD
:0C3DEE000808E62BFB08E63CFCEB2EFE70
:0E3DFA00EC3FFF8E828F838AF0126B39FEE55C
:0C3E0800082405F886820886830886F0EE
:0C3E1400EE124B66A8080806B600020873
:013E2000069B
:073E2100D003D002023DB006
:073E280090E2E2E4F0A3F0D8
:063E2F00850881D0082285
:0A3E3500C008858108C082C083C068
:0E3E3F00F090E2E4E0FDFE7F007430C39EFED2
:0E3E4D00E49FFF90EC52E0FAA3E0FBA3E0FC40
:0E3E5B00ED2AFDE43BFBC006C007C005C00316
:0C3E6900C004A80808868208868308862A
:0E3E7500F01256C6E58124FBF58190E2E4E0F0
:0E3E8300FB7C007430C39BFBE49CFC8B828CA8
:073E910083850881D008229F
:0A3E9800C008858108C082C083C005
:0E3EA200F0E5812408F58190E2E4E0FDFE7F6A
:0C3EB00000E5082404F87430C39EF6E41A
:0C3EBC009F08F690E2E0E0FAA3E0FBE5CE
:0C3EC800082404F8EA26FAEB0836FBC3D5
:0D3ED40074809AE49B5006900000023F9F0E
:0E3EE1007430C39EFEE49FFF90EC52E0FAA303
:0E3EEF00E0FBA3E0FCED2AFAE43BFBC006C0BA
:0C3EFD0007C002C003C004A808088682A9
:0E3F09000886830886F01256C6E58124FBF573
:0E3F17008190E2E2E0FAA3E0FB90E397E0FC89
:0E3F2500A3E0FDA3E0FEEA2CFAEB3DFB8E07C5
:0A3F3300A80808E5082406F9743018
:0E3F3D0026F7E4083609F70809E6F790E2E4F3
:0C3F4B00E0FC7D00E5082406F8E6C39CBD
:0E3F5700FC08E69DFD08860690E2E0E0C0E072
:0E3F6500A3E0C0E0C002C003C0078C828D83C1
:0E3F73008EF01256C6E58124FBF58190E2E443
:0D3F8100E0FA7B007430C39AFAE49BFB90D9
:0E3F8E00E2E0E0FCA3E0FDEC2AFAED3BFB8A4A
:033F9C00828B8392
:063F9F00850881D0082214
:0E3FA500AA82AB8390E2E4E0FC7D00C3EC9ABC
:0E3FB300ED64808BF063F08095F0402BC0022F
:0E3FC100C003124127AC82AD83D003D002EAC8
:0E3FCF002CFCEB3DFDC374809CE49D400E90E5
:0D3FDD00E2E4E090E2E4C39AF090000122DB
:043FEA009000002221
:0E3FEE00AA8290E2E4E0FB90E2E4EA2BF022EB
:0E3FFC00AA82AB8390E2E0E0FCA3E0FD8A061F
:0D400A008B07C3EC9EED9F50049000002238
:0E40170090E2E2E0FEA3E0FF90E2E2EA2EF08B
:0E402500EB3FA3F090E2E0ECC39AF0ED9BA31A
:05403300F090000122E5
:0C403800AA83E58290E2E0F0A3EAF02207
:0E40440090E2E2E0FAA3E0FB74302AFAE43BDB
:0E405200FB90EC52E0FCA3E0FDA3E0FEEA2CA4
:0E406000FAEB3DFB8E077C008A828B838CF08E
:01406E00222F
:0E406F0090EC52E0FAA3E0FBA3E090E2E4E064
:0E407D002AFAE43BFB7C008A828B838CF022C3
:0A408B00C008858108AA82AB83AC4F
:0E409500F0C002C003C004123C81D004D0036E
:0E40A300D00290E397EAF0A3EBF0A3ECF0E577
:0C40B1000824FCF890E2E0E6F008A3E62A
:0440BD00F0D0082215
:0E40C10090EC52E0FAA3E0FBA3E0FC74302A7E
:0E40CF00FAE43BFB90E397E0FDA3E0FEA3E0E4
:0E40DD00FFEDB5020CEEB50308EFB504047458
:0340EB0001800150
:0140EE00E4ED
:0440EF00FAB401001E
:0A40F300E433FA7B008A828B8322FB
:0E40FD0090E397E0FAA3E0FBA3E0FC8A828B3D
:04410B00838CF0228F
:0C410F0090E2E0E0FAA3E08A82F583224F
:0C411B0090E2E4E0FA7430C39AF58222CE
:0E41270012411BAA827B00C002C00312410F8E
:0E413500AC82AD83D003D002EC2AFAED3B8AB7
:0441430082F583225C
:044147007A007B007F
:0E414B00C3EA9418EB64809480501E8A04EB43
:0C415900CC25E0CC33FDEC24A8F582ED71
:0C41650034E2F583E4F0A3F00ABA00DABB
:034171000B80D7E9
:044174007A007B0052
:0E417800C3EA9404EB64809480503D8A04EB0B
:0C418600CC25E0CC33FDEC24D8FCED345B
:0A419200E2FD7E00C002C00374DFEE
:0C419C00C0E074A6C0E07480C0E08C821B
:0E41A8008D838EF012490C158115811581D082
:0A41B60003D0020ABA00BB0B80B868
:0141C00022DC
:0A41C100C008858108AA82AB83AC18
:0C41CB00F07430C0E0E4C0E074A8C0E074
:0C41D70074E2C0E0E4C0E08A828B838CBC
:0C41E300F01256C6E58124FBF581E508CA
:0E41EF0024FBF886020886030886047408C0C4
:0A41FD00E0E4C0E074D8C0E074E212
:0E420700C0E0E4C0E08A828B838CF01256C6C1
:09421500E58124FBF581D00822AB
:0A421E00C008858108AA82AB83ACBA
:0E422800F07430C0E0E4C0E0C002C003C00487
:0E42360090E2A875F0001256C6E58124FBF553
:0C424400817408C0E0E4C0E0E50824FB41
:0D425000F8E6C0E008E6C0E008E6C0E09037
:0E425D00E2D875F0001256C6E58124FBF5810B
:03426B00D0082256
:0A426E00C008858108E5822582243E
:09427800A8F582E434E2F583E5C7
:0B4281000824FCF8E6F0A308E6F0902B
:05428C000001D0082232
:0A429100E582258224A8F582E434BA
:0C429B00E2F583E0FAA3E08A82F58322BA
:0A42A700C008858108E58224E8259F
:0A42B100E024D8FAE434E2FB7C00BC
:0C42BB00E50824FBF8E6C0E008E6C0E0DF
:0E42C70008E6C0E08A828B838CF012490C1549
:0B42D5008115811581900001D00822A6
:0B42E000E58224E825E024D8FAE4344D
:0B42EB00E2FB7C008A828B838CF022B7
:03A7C100E5E200CE
:0800920079A7E94400601B7A24
:05009A000190A76A7847
:03009F00FB75935B
:0A00A200EBE493F2A308B800020596
:0800AC0093D9F4DAF27593FF19
:0442F6007A007B00CF
:0E42FA00C3EA940CEB64809480504C8A04EB71
:0D430800CC25E0CC33CC25E0CC33FDEC24FB
:0A4315009CFCED34E3FD8A06EBCEBC
:0C431F0025E0CE33FFEE24CCF582EF3415
:0C432B00E3F583E4F0A3F08C828D83E4C2
:0C433700F0A3F0A3F0A3F0EA24E4F58268
:0C434300EB34E3F583E4F00ABA00AC0BA5
:02434F0080A943
:014351002249
:0A435200C008858108C082C083E521
:0A435C0081240AF581A80808E62470
:0A436600E4FC08E634E3FD8C828DD0
:0743700083E07003024430FA
:0D437700ACE27D00AFE3E42CFCEF3DFDE582
:0A438400082403F8A60408A605A803
:0C438E000808860608E6CE25E0CE33CEF7
:0B439A0025E0CE33FFEE249CFEEF3444
:0A43A500E3FF8E828F83E5082405F4
:0E43AF00F8E0F6A3E008F6A3E008F6A3E008A5
:0C43BD00F6A80808860208E6CA25E0CA37
:0A43C90033FBE5082409F8EA24CCD0
:0A43D300F6EB34E308F6E5082409D0
:0C43DD00F88682088683E0FCA3E0FDE582
:0C43E900082403F8E6C39CFC08E69DFDD8
:0C43F500E4FAFBE5082405F8EC26FCEDDA
:0E4401000836FDEA0836FAEB0836FB8E828F8D
:0D440F0083ECF0A3EDF0A3EAF0A3EBF0E5E1
:0A441C00082409F88682088683E56B
:0A442600082403F9E7F0A309E7F00A
:0C443000A80808860208E6CA25E0CA3386
:0C443C00CA25E0CA33FBEA249CF582EBA1
:0C44480034E3F583E0FAA3E0FBA3E0FC02
:0C445400A3E08A828B838CF0850881D065
:02446000082230
:07446200900000E4F5F022D8
:0A446900C008858108AA82E583CA15
:0C44730025E0CA33CA25E0CA33FBEA2466
:09447F009CF582EB34E3F583E5C2
:0C4488000824FAF8E6F0A308E6F0A30808
:09449400E6F0A308E6F0D00822CE
:0A449D00C008E581F508240AF58146
:0944A700E5082403F8E4F608F628
:0C44B000E5082403F8C3E6940C08E66459
:0844BC0080948040030245A139
:0A44C400E5082403F8E624E4FC08F0
:0C44CE00E634E3FD8C828D83E070030275
:0244DA00459308
:0D44DC00ACE27D00AFE3E42CFCEF3DFDA859
:0A44E9000808A60408A605E508244B
:0E44F30003F8860608E6CE25E0CE33CE25E09F
:0A450100CE33FFEE249CFEEF34E3FE
:0C450B00FF8E828F83E5082405F8E0F69F
:0D451700A3E008F6A3E008F6A3E008F6E52F
:0C452400082403F8860208E6CA25E0CA55
:0A45300033FBE5082409F8EA24CC67
:0A453A00F6EB34E308F6E508240967
:0C454400F88682088683E0FCA3E0FDA856
:0C4550000808E6C39CFC08E69DFDE4FAA8
:0C455C00FBE5082405F8EC26FCED083611
:0E456800FDEA0836FAEB0836FB8E828F83ECF4
:0C457600F0A3EDF0A3EAF0A3EBF0E508E1
:0C4582002409F88682088683A90809E74E
:05458E00F0A309E7F0B5
:0B459300E5082403F806B60002080645
:03459E000244B024
:0645A100850881D008220C
:0645A700AA82AB83ACF018
:0E45AD008A828B838CF0126B39FD60180ABA7B
:0345BB0000010BF1
:0E45BE008D82C002C003C0041269E8D004D090
:0545CC0003D00280DCB9
:0145D10022C7
:0E45D200E582FAC4540F90A6B793F582C0029A
:0E45E0001269E8D002740F5A90A6B793F582C4
:0345EE000269E877
:0445F100AA827B809F
:0B45F500EB6025EB5AFCE4BC00010465
:04460000FCB4010005
:0D460400E43390A6C893F582C002C00312F3
:0C46110069E8D003D002EBC313FB80D893
:01461D00227A
:0E461E007582421269E87582611269E8758240
:0E462C006E1269E875826B1269E875823A12A7
:0C463A0069E87582201269E8859F8212F1
:0846460045F175820A0269E8E2
:0EA6B7003031323334353637383961626364FE
:03A6C500656600C7
:03A6C8003031002E
:0E464E0090A6CBE493FAA3E493FBC002C00352
:0E465C008A828B83120083D003D00290A718AD
:0E466A00E493FAA3E493FBC002C0038A828BA0
:0E46780083120083D003D00290A6F6E493FADA
:0D468600A3E493FBC002C0038A828B831261
:0E4693000083D003D00290A70AE493FAA3E4B8
:0E46A10093FBC002C0038A828B83120083D079
:0446AF0003D0022210
:0A46B300C008858108AA82AB83AC21
:0E46BD00F074022AFDE43BFE8C078D828E8392
:0C46CB008FF0E50824FCF8E6124B66A313
:0E46D70008E6124B66C002C003C004124CCEAF
:0E46E500AD82AE83D004D003D0028A828B83D4
:0C46F3008CF0ED124B66A3EE124B66D06B
:0246FF0008228F
:0E470100AA82AB83ACF0126B39FDA3126B39A8
:0E470F00FE74022AFFE43BF88C018F8288833F
:0E471D0089F0126B39FFA3126B39F8EF2DFDF6
:0E472B00E83EFE8A828B838CF0ED124B66A373
:04473900EE024B66DB
:0D473D00AA82AB83ACF0C002C003C004121E
:0E474A004CCEAD82AE83D004D003D0028A8262
:0D4758008B838CF0ED124B66A3EE024B66D6
:0A476500C008858108C082C083C02F
:0C476F00F0124CCEAD82AE83A808088684
:0D477B00820886830886F0126B39FFA312B6
:0E4788006B39FAEDC39FFDEE9AFE0DBD0001E8
:014796000E14
:0C479700A80808740226FAE40836FB08A3
:0E47A30086048A828B838CF0126B39FAA31283
:0E47B1006B39FBC3EA9DEB9EE433FD3395E0CC
:0A47BF00FA8D828A83850881D008F4
:0147C90022CD
:0E47CA00AA82AB83ACF0126B39FDA3126B39DF
:0E47D800FE74022AFAE43BFB8A828B838CF08B
:0E47E600126B39FAA3126B39FBEA2DFDEB3E84
:0E47F400FEC005C006124CCEAA82AB83D006D2
:0D480200D005EDC39AFDEE9B8D82F583225B
:05480F00AA82BAE000DE
:074814004032BAE202800805
:05481B00BAE302800376
:03482000BAE522D4
:0D48230090DF53E0FB8AE1900002C0031219
:0E4830004C7CD00390DF53E0FCEBB50401227A
:07483E0075E1E675E1E622D9
:034845008AE122E3
:0C484800BADE1053E9FD75E1DF75E1FEFA
:07485400E5E920E10480F911
:02485B008AE1F0
:01485D002238
:03485E000234E53C
:0A486100C008858108AA82AB83AC71
:0C486B00F0E50824FCF8E6C0E008E6C018
:0E487700E08A828B838CF0123458AA82AB83C5
:0B488500158115818A828B83D00822E8
:034890000235836B
:03489300023A3BAB
:034896000239DF05
:0A489900C008858108AA82AB83AC39
:0C48A300F0E50824FCF8E6C0E008E6C0E0
:0E48AF00E08A828B838CF012345815811581BB
:0648BD00123583D0082231
:0A48C300C008858108AA82AB83AC0F
:0C48CD00F0E50824FCF8E6C0E008E6C0B6
:0E48D900E08A828B838CF012377AAA82AB833E
:0B48E700158115818A828B83D0082286
:0E48F200E4C0E0758200123B1BAA82AB831566
:06490000818A828B8322F4
:034906000234CEAA
:034909000234D69F
:02A6CB005E48E7
:02A6CD006148E2
:02A6CF009048B1
:02A6D1009948A6
:02A6D300C3487A
:02A6D500F24849
:02A6D700064932
:02A6D90009492D
:02A6DB0096489F
:02A6DD009348A0
:0A490C00C008858108C082C083C086
:0A491600F00581E5082404F876009E
:08492000E5082404F8B60200CA
:0A4928005045A80808E5082404F92A
:0C493200E726FEE40836FF088602E508D0
:0C493E0024FBF88603088604088605E5C3
:0C494A00082404F8E62BFBE43CFC8B8204
:0E4956008C838DF0126B39FB8E828F838AF07A
:0B496400124B66E5082404F80680B141
:06496F00850881D008223A
:0A497500C008858108C082C083C01D
:0A497F00F00581E5082404F8760035
:08498900E5082404F8B6020061
:0A4991005051A80808E5082404F9B5
:0C499B00E726FEE40836FF088602E50867
:0C49A70024FBF88603088604088605E55A
:0C49B300082404F8E62BFBE43CFC8E8298
:0E49BF008F838AF0126B39FE8B828C838DF011
:0A49CD00126B39FBEEB50302800502
:0549D700900000800BC0
:0849DC00E5082404F80680A59B
:0349E4009000013F
:0649E700850881D00822C2
:0D49ED00AA82AB83ACF0C002C003C00490EE
:0E49FA00E3F075F00012490C1581158115814E
:014A0800228B
:02A6DF00000079
:0A4A0900C008E581F5082405F581D9
:0C4A1300AA82AB83ACF07D007E00A808F6
:054A1F0008E4F608F6B2
:0A4A2400C005C006A80808E5082434
:0E4A2E0003F9E62AF708E63B09F709A704E5B5
:0C4A3C00082403F886820886830886F0B0
:0E4A4800126B391818F6A3126B3908F6A31278
:0C4A56006B3908F6E5082403F8B6000EE2
:0E4A620008B6000A08B60006D006D005804847
:0E4A7000D006D005C002C003C004C005C006B9
:0C4A7E00E4C0E0C0E0C0E0E5082403F85C
:0E4A8A0086820886830886F01226DD158115C7
:0E4A9800811581D006D005D004D003D002A82D
:0C4AA6000808740326F6E40836F60DBD7F
:034AB20000010EF2
:034AB500024A248E
:064AB800850881D00822F0
:0A4ABE00C008E581F5082405F58124
:0C4AC800AA82AB83ACF07D007E00A80841
:054AD40008E4F608F6FD
:0A4AD900C005C006A80808E508247F
:0E4AE30003F9E62AF708E63B09F709A704E500
:0C4AF100082403F886820886830886F0FB
:0E4AFD00126B391818F6A3126B3908F6A312C3
:0C4B0B006B3908F6E5082403F8B6000E2C
:0E4B170008B6000A08B60006D006D005803B9E
:0C4B2500D006D005E5082403F8868208BD
:0E4B310086830886F0C002C003C004C005C021
:0E4B3F0006122B87D006D005D004D003D0027A
:0C4B4D00A80808740326F6E40836F60DEC
:044B5900BD00010E8C
:034B5D00024AD930
:064B6000850881D0082247
:0E4B660020F71030F6118883A88220F507F69C
:054B7400A88375830019
:014B79002219
:034B7A00F280F7CF
:024B7D00F02224
:0A4B7F00C008858108C082C083E5EC
:0A4B8900812407F581AA080AE50857
:0C4B93002403F8A602087600087640E52E
:0A4B9F000824FCFA7B007C40E508C6
:0C4BA9002406F8E5082403F98782098738
:0E4BB500830987F0126B39FD8A828B838CF0A6
:0C4BC300126B39FE8DF0A4F608A6F0E598
:0C4BCF0008240604F886070ABA00010B4F
:0E4BDB008A828B838CF0126B398DF0A4FDE57D
:0C4BE900082403F9740127FAE40937FBE3
:0E4BF5000987048A828B838CF0126B39FA8A4E
:0C4C0300F0EEA42D2FF6E5082406F8863C
:0C4C0F00020886038A828B83850881D00E
:024C1B0008226D
:014C1D002274
:0E4C1E007A00C00212247FAB82D002EB30E697
:034C2C00027A0405
:074C2F00EB30E70343020133
:034C36008A82224D
:0E4C3900AA82C00212247FAB82D00290E3F266
:0E4C4700EBF0EA30E20990E3F274404BF080AB
:014C55000757
:074C560090E3F274BF5BF074
:0E4C5D00EA30E00A90E3F2E0FA4480F08008CA
:084C6B0090E3F2E0FA547FF03F
:094C730090E3F2E0F58202243422
:084C7C00AA82AB837C007D00DD
:084C8400C3EC9AED9B400122F4
:094C8C00000CBC00F30D024C8485
:0E4C9500AA82AB83C002C003124CCEAC82AD2B
:054CA30083D003D002E4
:0E4CA800C002C003C004C005124CCEAE82AFE5
:0E4CB60083D005D004D003D002EEC39CFEEFE5
:0A4CC4009DFFC3EE9AEF9B40DB2238
:0C4CCE0090EC55E0FAA3E08A82F5832206
:0E4CDA0090EC57E0FAA3E0FB7C007D008A829C
:064CE8008B838CF0ED222D
:0E4CEE0075C6B0AA957B007C007D00AE967F57
:0E4CFC0000780088018F008E07E42AFAEF3B53
:0E4D0A00FBE83CFCE93DFDAE977F008F018E7B
:0E4D180000E4FF2AFAEF3BFBE83CFCE93DFD1E
:0E4D260074012BFBE43CFCE43DFD90E3F3EA5A
:0E4D3400F0A3EBF0A3ECF0A3EDF08C978B96C0
