:040000000200853243
:01000B0032C2
:0300130002127462
:03001B0002135578
:0100230032AA
:03002B00024D2261
:01003300329A
:03003B0002134865
:0300430002505513
:03004B00023BA7CE
:01005300327A
:01005B003272
:01006300326A
:03006B00021092EE
:030073000214294B
:03007B0002117DF2
:03012B0002007E51
:05007E0012031880FED2
:0A012E00C008858108C082C0837CF0
:03013800007D0047
:0E013B00C3EC9490ED64809481400302022A8C
:0E014900C374C89C74808DF063F08095F050F4
:0C0157000B7490C39CFE74019DFF80049B
:040163008C068D0772
:0C016700A8080886028A82C002C004C0FA
:0E01730005C006C00712163ED007D006D00504
:0B018100D004D00290E000E4F0A3F0F6
:0E018C00C00290E000E0FBA3E0FAC3EB9EEAA5
:0E019A0064808FF063F08095F0D0025022C098
:0E01A8000290E000E0FBA3E0FA90E002EBF032
:0E01B600A3EAF090E000E02401F0A3E03400A2
:0501C400F0D00280C331
:0E01C9008A82C004C005C006C007121655D0B9
:0E01D70007D006D005D00490E000E4F0A3F0BD
:0801E50074C8C39EFAE49FFBFD
:0E01ED0090E000E0FEA3E0FFC3EE9AEF648016
:0E01FB008BF063F08095F0501E90E000E0FE67
:0E020900A3E0FF90E002EEF0A3EFF090E00023
:0B021700E02401F0A3E03400F080CBF5
:050222000CBC00010D01
:0302270002013B96
:06022A00850881D00822C6
:0A023000C00885810805810581C220
:0A023A00AF759F037AF87BFF7C008C
:03024400BC0800F3
:0A024700501DEC2406FDE434E0FE37
:0E0251008A828B83E493FFA3AA82AB838D8203
:07025F008E83EFF00C80DE3E
:0C026600759F01D2AFAA080A7B007C4003
:0E0272007402C0E0E4C0E0E4C0E08A828B8346
:0E0280008CF01257E315811581158190EC86E4
:09028E00E0FAA3E0FB4A701FFA3C
:03029700BA0200A8
:0C029A005038AB080BEA2BF87401C39A33
:0A02A6002406F582E434E0F583E05D
:0502B000FBF60A80E2EC
:0A02B50090A79175F080123F0CAA8B
:0C02BF00080AEA04F890EC86E0FAA3E0DC
:0902CB00FCF6A808087B00A6025D
:0C02D400AA080A7B007C408A828B838C85
:0C02E000F0124352A8080886028A037A34
:0C02EC0000AC080CEC04F886047D00EC6B
:0E02F8002AFAED3BFBE4C0E0C0E0C0E0C0022B
:0D030600C00390FFFF123A83E58124FB85C0
:050313000881D0082262
:07031800126D8112222C126C
:09031F0023D612160C9000011205
:0D032800012E90C20075F001E41255D8902E
:06033500243712134912E7
:06033B002B5C12264C9021
:09034100A7B675F080123F0C9084
:09034A00A7CF75F080123F0C12E0
:0903530016B79000001260371289
:0D035C003FB3120230E4C0E0C0E0C0E0900A
:0E036900ECA375F00012268E1581158115810A
:0E03770012638CE4C0E0C0E0C0E090ECC775FB
:0E038500F00012268E1581158115811220269A
:0E03930090000412012E123C5BAAE27B00AD2A
:0E03A100E37C00EC2AFAED3BFB90E365EAF00A
:0E03AF00A3EBF090E37D7401F090A80375F0CD
:0703BD008012436E1216BB13
:0E03C4001216BF122D9EAA82AB83C3E49A7458
:0E03D200808BF063F08095F040E890A8E8E49E
:0E03E00093FAA3E493FB8A828B83120083AA14
:0E03EE0082AB8390E004EAF0A3EBF0EA4B60F0
:0E03FC00C71245E11249A4AA82AB83ACF0748B
:0D040A0080C0E0E4C0E08A828B838CF01299
:0E0417003754AA82AB831581158190E004EA68
:0E042500F0A3EBF0C3E49A74808BF063F080D8
:0E04330095F0508D8A828B8312499890A92BE8
:0E044100E493FAA3E493FBC002C0038A828B0B
:0B044F0083120083D003D0020203C41C
:0EA7910053657474696E67206D616E75616C3E
:0EA79F0020616464726573732066726F6D20B2
:09A7AD006E6F64655F69640A00C7
:0EA7B60057656C636F6D6520746F20436F6E86
:0BA7C40074696B6920322E342E0A00ED
:0EA7CF0052756E6E696E67206F6E3A204E37BF
:0EA7DD003430204E616E6F53656E736F7220C4
:0EA7EB00284343323433312D46313238292E83
:02A7F9000A0054
:02A979000000DC
:0E00DE0090E0F6E4F0A3F090E0F8E4F0A3F078
:0A00EC0090E104E4F090E105F090CB
:0E00F600E10C7416F0A374AAF090E10E7411E0
:0E010400F0A374AAF090E110E4F090EC88E013
:0B011200FA90E111F090E112E4F0908F
:09011D00E113F090E1147401F00B
:0A045A00C0088581080581058112A4
:0E04640049A4AA82AB83ACF0126CE4FDBD216A
:0304720002800302
:030475000205A5D8
:0E04780090EC98E0FD7E00C002C003C004C0FE
:0A04860005C0067409C0E074A8C0A8
:0E049000E07480C0E0125FE7E58124FBF58197
:0E049E00D004D003D00290EC98E02401F0745A
:0E04AC00012AFDE43BFE8C078D828E838FF0CB
:0C04BA00126CE4FDA80808A605087600F6
:0C04C600A80808E608F618760074022A60
:0D04D200FFE43BFD8C068F828D838EF012BF
:0C04DF006CE4FF7D00A80808EF46F6ED75
:0E04EB000846F674062AFDE43BFE8C078D825F
:0E04F9008E838FF0126CE4FE7D0074072AFAE9
:0E050700E43BFB8A828B838CF0126CE4FA7B5F
:0C0515000090EC94EA4DF0EB4EA3F0E5F2
:0C0521000824FBF8860208860308860404
:0E052D008A828B838CF0126CE4FE7D000ABA89
:03053B0000010BB1
:0E053E008A828B838CF0126CE47B004205EB0A
:0E054C0042068D0290E067EAF08E0290E066B3
:0E055A00EAF0E07B0090E067E0FC7F00C00567
:0C056800C006C002C003C004C007742716
:0B057400C0E074A8C0E07480C0E0127A
:0D057F005FE7E58124F9F581D006D00590F5
:09058C00EC997402F090E00EA855
:0C0595000808E6F0A308E6F090E010ED86
:0405A100F0A3EEF0E5
:0705A5001245E1850881D039
:0205AC00082223
:0605AE00C008858108125F
:0505B40045E1D0082222
:0A05B900C008E581F5082404F5816F
:0E05C300AA82AB83ACF07D01126CE4FEA312A1
:0B05D1006CE4FFBE0005BF00028015B7
:0905DC00BEFC06BF00030206EBA1
:0905E500BE6E06BF0103020C7D8D
:0305EE00020E5C9E
:0505F10090E104E4F0BC
:0805F60090E104E0FEBE0A00E2
:0E05FE005053C002C003C004EEC40354F8FF03
:0A060C002416F582E434E0F583E4DF
:0A061600F0A3F0EF2416FFE434E037
:0E062000FA8F828A83A3A374FFF0A3F08F8267
:0E062E008A83A3A3A3A3E4F0A3F074062FF520
:0E063C0082E43AF583E4F0A3F090E104EE04CA
:09064A00F0D004D003D00280A31B
:0B065300C002C003C0047440C0E0748B
:0C065E00A8C0E07480C0E0125FE71581C6
:0A066A001581158174FBC0E074A730
:0E067400C0E07480C0E07480C0E0E4C0E0909C
:0E068200E07B75F000124F9EE58124FBF581B0
:0A06900074FFC0E074A7C0E074809E
:0E069A00C0E07481C0E0E4C0E090E06975F05B
:0E06A800001254B2E58124FBF581E4C0E07439
:0E06B60001C0E090E0FA75F000121D8315817E
:0806C4001581D004D003D0021F
:0A06CC0090EC99E0FEBE01028003ED
:0306D600020970A6
:0E06D9007D008A828B838CF074FC1244CBA3CC
:0406E700E41244CB0A
:0E06EB00ED601E90E0FA75F000C002C003C082
:0E06F90004121E47E5828583F0D004D003D0A2
:050707000245F0700640
:06070C00758201020E6E71
:0A07120090E104E0FE60030207F42A
:0E071C00C002C003C00490E0F1E0FEA3E0FFC5
:0E072A00A3E0FA74032EFEE43FFF8E828F835D
:0E0738008AF0126CE4FEA3126CE4FFC002C053
:0A07460003C0047459C0E07407C03A
:09075000E0C006C007900004227D
:0E075900AE82AF83D004D003D00290E0EFEE6A
:0E076700F0A3EFF090E08A7420F090E10CE037
:0D077500FAA3E090E08BF090E08CEAF090A9
:08078200EC8FE090E08DF09097
:08078A00EC90E090E08EF0908D
:09079200EC91E0FA90E08FF09088
:0C079B00E10EE0FBA3E0FC90E090F09089
:0A07A700E091EBF090EC88E0FB908D
:0E07B100E092F090EC91EA04F0C002C003C0A8
:0E07BF00047409C0E0E4C0E090E08A75F00028
:0E07CD001246181581158190E07B75F0001220
:0C07DB0050231245E1D004D003D002905E
:0D07E700E114E4F0D004D003D002020918A0
:0507F40090E105E4F0B6
:0807F90090E105E0FEBE0A00DC
:0E0801005049C002C003C004EEC40354F824E2
:0A080F0016F582E434E0F583E0FF03
:0E081900A3E0FA90E10CE0FBA3E0FCEBB507D6
:0708270006ECB50202800897
:08082E00D004D003D002800EBB
:0E083600D004D003D00290E1107401F08008CD
:0808440090E105EE04F080AD27
:0A084C0090E110E0FE7003020918AD
:0D085600C002C003C00490E08A7422F0903C
:0B086300E10CE0FEA3E090E08BF090C1
:09086E00E08CEEF090E389E090CB
:08087700E08DF090E38AE090AF
:08087F00E08EF090EC8DE0909A
:08088700E08FF090EC8EE09090
:0D088F00E090F090E0F4E0FAA3E0FBFC90B4
:0E089C00E091F090E092EAF0C002C003C004C8
:0E08AA007409C0E0E4C0E090E08A75F000122E
:0D08B800461815811581D004D003D00290A0
:0C08C500E105E0C40354F82416FAE43402
:0C08D100E0FB8A828B83A3A3E0FAA3E083
:0E08DD00FB8A0490E066ECF08B0290E067EA84
:0C08EB00F0C002C003C0047466C0E074DA
:0C08F700E0C0E0E4C0E090E06975F000B3
:0E090300125537158115811581D004D003D00F
:0709110002D004D003D00264
:0E09180090E104E0FE7029C002C003C004E4B8
:0D092600C0E07401C0E090E0FA75F000122E
:0D0933001D8315811581D004D003D00290E2
:08094000E1047401F00206CC91
:0E094800C002C003C0047480C0E0E4C0E090B0
:0E095600E0FA75F000121D8315811581D004A2
:0C096400D003D00290E104E4F00206CCC5
:0A09700090EC99E0FEBE0202800345
:03097A00020E5C0E
:0E097D00C002C003C00490A84975F080C003FA
:0E098B00C004123054AE82AF83AAF0D004D064
:0E0999000390E0F1EEF0A3EFF0A3EAF0740398
:0E09A7002EFEE43FFF8E828F838AF0126CE4F6
:0E09B500FEA3126CE4FFC002C003C004C00722
:0A09C30074D3C0E07409C0E0C00660
:0609CD00C00790000022AB
:0D09D300AD82AE83D007D004D003D00290D7
:0E09E000E0EFEDF0A3EEF0BDFF0CBEFF09D07E
:0809EE0004D003D002020970DD
:0E09F600D004C0048D828E83C0041256F9AE68
:0E0A040082AF83AAF0FBD004C006C007C00278
:0E0A1200C00390538F75F01C743F122189AA07
:0E0A200082AB83ACF0FEE58124FCF581E4C0DE
:0E0A2E00E07440C0E07441C0E07444C0E08A4F
:0E0A3C00828B838CF0EE120E74AA82AB83AC18
:0E0A4A00F0FEE58124FCF581C002C003C0046B
:0E0A580074CDC0E074CCC0E0741CC0E07440EB
:0D0A6600C0E08A828B838CF0EE126ADCA85F
:0C0A73000808A68208A68308A6F008F672
:0D0A7F00E58124FCF581D004D003D002A84D
:0C0A8C00080890EC89E6F008A3E6F008EA
:0C0A9800A3E6F008A3E6F0A80808868298
:0D0AA4000886830886F008E6C003C004122F
:0E0AB1005706AF82AA83D004D00390E106EF6F
:0E0ABF00F0A3EAF090EC8DEFF08F828A8312A4
:0E0ACD0056F9AA82AB83ACF0FEC002C003C093
:0C0ADB0004C006A808088682088683086C
:0E0AE70086F008E6120E74AA82AB83ACF0FE15
:0E0AF500E58124FCF58190E108EAF0A3EBF026
:0E0B0300A3ECF0A3EEF0C002C003C004C006D5
:0E0B110090000075F0C87442122189AA82ABD0
:0E0B1F0083ACF0FEE58124FCF5818A828B8395
:0D0B2D008CF0EEC00412573AAA82D004905A
:0E0B3A00EC8EEAF090E0F1E0FAA3E0FBA3E01D
:0E0B4800FC74032AFAE43BFB8A828B838CF058
:0E0B5600126CE4FAA3126CE4FBC002C003C0F0
:0A0B6400047475C0E0740BC0E0C01B
:070B6E0002C0039000042205
:0E0B7500AD82AE83D004D003D00290E0EFED4D
:0E0B8300F0A3EEF0BDFF0CBEFF09D004D003BE
:050B9100D002020C4936
:0E0B9600D004C0048D828E83C0041256F9AEC6
:0E0BA40082AF83AAF0FBD004C006C007C002D7
:0E0BB200C00390000075F0707440122189AAF3
:0E0BC00082AB83ACF0FEE58124FCF581E4C03D
:0E0BCE00E074E0C0E074FFC0E07444C0E08A50
:0E0BDC00828B838CF0EE126ADCAA82AB83ACB3
:0E0BEA00F0FEE58124FCF58190EC89EAF0A391
:0E0BF800EBF0A3ECF0A3EEF0C002C003C004CB
:0E0C0600C00690000075F07A7444122189AA8D
:0E0C140082AB83ACF0FEE58124FCF5818A8280
:0E0C22008B838CF0EEC002C003C00412573A60
:0E0C3000E5828583F0D004D003D00290E0F47A
:0B0C3E00F0A3E5F0F0D004D003D002DA
:0B0C4900C002C003C004744DC0E07482
:0C0C5400A8C0E07480C0E0125FE71581CA
:0E0C600015811581D004D003D0027D008A8258
:0D0C6E008B838CF0746E1244CBA3740112C2
:020C7B0044CB68
:0E0C7D00ED601E90E0FA75F000C002C003C0EA
:0E0C8B0004121E47E5828583F0D004D003D00A
:050C99000245F07006A9
:060C9E00758201020E6EDA
:0D0CA400C002C003C00490E08A7422F090EA
:0C0CB100E08B74FFF090E08C7406F09073
:080CBD00EC8DE090E08DF09059
:080CC500EC8EE090E08EF0904F
:0B0CCD00E0F4E0FDA3E090E08FF09069
:0E0CD800E090EDF0C002C003C0047407C0E05D
:0E0CE600E4C0E090E08A75F000124618158117
:0E0CF4001581D004D003D00290E010E0FDA3E3
:0E0D0200E0FE8D0790E067EFF08E0590E06652
:0E0D1000EDF0C003C00490E108E0C0E0A3E0F5
:0E0D1E00C0E0A3E0C0E0A3E0C0E090000075DC
:0E0D2C00F0C87442122189AD82AE83AFF0FA96
:0E0D3A00E58124FCF581D004D0038D828E83E8
:0E0D48008FF0EAC00412573AAA82AB83D0049F
:0E0D5600C002C003C00490E0EFE0C0E0A3E0E4
:0E0D6400C0E0C002C00390E106E0C0E0A3E0E2
:0A0D7200C0E0746DC0E074A8C0E09A
:0E0D7C007480C0E0125FE7E58124F7F58190F6
:0C0D8A00E0F4E0C0E0A3E0C0E07485C02D
:0C0D9600E074A8C0E07480C0E0125FE7C9
:0D0DA200E58124FBF581D004D003D0029040
:0E0DAF00E066E0FA7B0090E067E0FC7D00C0AB
:0E0DBD0002C003C004C002C003C004C005741D
:0A0DCB0094C0E074A8C0E07480C07A
:0C0DD500E0125FE7E58124F9F581746607
:0C0DE100C0E074E0C0E0E4C0E090E06915
:0E0DED0075F000125537158115811581D0045F
:0E0DFB00D003D00290E104E0D004D003D00277
:0E0E09007029C002C003C004E4C0E07401C040
:0E0E1700E090E0FA75F000121D831581158140
:0D0E2500D004D003D00290E1047401F0026B
:020E3200097045
:0E0E3400C002C003C0047480C0E0E4C0E090BF
:0E0E4200E0FA75F000121D8315811581D004B1
:0C0E5000D003D00290E104E4F00209702D
:0D0E5C008A828B838CF0E41244CBA3E41255
:050E690044CB7582037B
:060E6E00850881D0082276
:04A7FB00AE050000A7
:04A7FF005A040000F8
:06A803009AEC00000000C9
:0EA809000A20526F7574652065737461626C6D
:0EA817006973686564206E6F2E2564202D3EE7
:02A82500200011
:0EA827006C61737420686F702069733A20258D
:0BA8350030327825303278200A0D0008
:09A840000A73746172740A0D00C0
:04A849004144430043
:0EA84D00656E746572206461746120747261BE
:0EA85B006E736D697373696F6E2070726F6338
:04A8690065737300A0
:0EA86D00202054656D703D25642E2530327517
:0AA87B00204320282564290A0D005F
:0EA88500202062617474657279203D20256484
:01A8930000C4
:0EA894006E65787420253032782530327800D9
:01A97B0001DA
:04A97C0000000000D7
:01A9800000D6
:01A9810000D5
:01A9820000D4
:01A9830004CF
:01A9840001D1
:02A985000000D0
:02A987000000CE
:02A989000000CC
:01A98B0000CB
:01A98C0001C9
:09A98D00000000B9050000000003
:0B0E7400A8811818C6B2E7C602533769
:040E7F0053F4FE2208
:040E830053F4FE2204
:040E870043F401220D
:030E8B00D29022E0
:030E8E00C29022ED
:070E9100A290E433F5822278
:040E980043FE0122F2
:040E9C0053FEFE22E1
:070EA000438D01439A10226B
:0A0EA700538DFEE58D7003539AEFA2
:010EB100221E
:0C0EB2007401558DFA7B008A828B83222C
:040EBE00438C02223D
:040EC200538CFD222E
:0C0EC6007401558AFA7B008A828B83221B
:060ED200C2EB758A00224C
:040ED80053F3EF22BF
:040EDC0053F3EF22BB
:040EE00043F31022A6
:030EE400D2842293
:030EE700C28422A0
:070EEA00A284E433F582222B
:040EF10043FD10228B
:040EF50053FDEF2298
:0E0EF900438C1090E115E04410F043B8202225
:0E0F070090E115E054EFF090E115E0FA54F09F
:030F150060012256
:040F1800538CEF22E5
:0E0F1C0090E115E0FA5302107B008A828B836D
:010F2A0022A4
:040F2B00438C0122D0
:040F2F00538CFE22BF
:0C0F330074105589FA7B008A828B83229F
:060F3F00C2C57589002205
:0D0F4500120E91E582701990E117F5F0127F
:0B0F520040CAAA82AB83EA4BB4010046
:080F5D00E433FA7003FA80028C
:020F65007A010F
:090F6700EA3395E08A82F5832249
:0C0F7000AA82AB83BA8105BB0002800698
:060F7C00BA8206BB00036F
:030F8200020EB2AA
:040F850090000022B6
:0A0F8900C008858108AA82AB83BA74
:070F93008005BB000280088D
:080F9A00BA814ABB0047800E3A
:070FA200120EBE120E7F12B9
:070FA9000E9C900001803A4C
:0B0FB000E50824FCF8E6084660251266
:0E0FBB000EB2E5828583F045F0701CC0E0C0E8
:0E0FC900E090E11775F00012401815811581B7
:080FD700120ED2120EA08003DD
:030FDF00120EA748
:050FE2009000018003F6
:030FE70090000077
:030FEA00D008220A
:0D0FED00120EEAE582701990E11BF5F0127A
:0B0FFA0040CAAA82AB83EA4BB401009E
:08100500E433FA7003FA8002E3
:02100D007A0166
:09100F00EA3395E08A82F58322A0
:0C101800AA82AB83BA8105BB00028006EF
:06102400BA8206BB0003C6
:03102A00020F1C96
:04102D00900000220D
:0A103100C008858108AA82AB83BACB
:07103B008005BB00028008E4
:08104200BA8147BB0044800B9A
:0B104A00120ED8120EF5900001803A43
:0B105500E50824FCF8E60846602512C0
:0E1060000F1CE5828583F045F0701CC0E0C0D7
:0E106E00E090E11B75F000124018158115810D
:08107C00120F3F120EF9800370
:03108400120F0741
:05108700900001800350
:03108C00900000D1
:03108F00D0082264
:0C109200C020C0E0C0F0C082C083C002DB
:0E109E00C003C004C005C006C007C000C001EA
:0E10AC00C0D075D000C2AFAAE27B00ADE3E475
:0E10BA002AFAED3BFB90E369EAF0A3EBF0901D
:0E10C800E37F7401F0120F33E5828583F0455B
:0E10D600F0602F90E11B75F0001240CAE58219
:0E10E4008583F045F0601D7420C0E0E4C0E09C
:0E10F20090E11B75F0001240181581158190D9
:08110000A8AB75F08012302D40
:0E110800758900C2C590E37FE0604B90E33D27
:0E111600E0FAA3E0FBA3E0FCA3E0FDAEE27F65
:0E11240000A9E3E42EFEE93FFF90E369E0F846
:0E113200A3E0F9EEC398FEEF99FFE4F8F9EEA2
:0E1140002AFAEF3BFBE83CFCE93DFD90E33D65
:0E114E00EAF0A3EBF0A3ECF0A3EDF090E37F4A
:02115C00E4F0BD
:0E115E00D2AFD0D0D001D000D007D006D0053F
:0E116C00D004D003D002D083D082D0F0D0E0E7
:03117A00D0203250
:0C117D00C020C0E0C0F0C082C083C002EF
:0E118900C003C004C005C006C007C000C001FE
:0E119700C0D075D000C2AFAAE27B00ADE3E489
:0E11A5002AFAED3BFB90E369EAF0A3EBF09031
:0E11B300E37F7401F0120EC6E5828583F045DD
:0E11C100F0602F90E11775F0001240CAE58231
:0E11CF008583F045F0601D7420C0E0E4C0E0B0
:0E11DD0090E11775F0001240181581158190F1
:0811EB00A8A275F08012302D5E
:0E11F300758A00C2EB90E37FE0604B90E33D15
:0E120100E0FAA3E0FBA3E0FCA3E0FDAEE27F79
:0E120F0000A9E3E42EFEE93FFF90E369E0F85A
:0E121D00A3E0F9EEC398FEEF99FFE4F8F9EEB6
:0E122B002AFAEF3BFBE83CFCE93DFD90E33D79
:0E123900EAF0A3EBF0A3ECF0A3EDF090E37F5E
:02124700E4F0D1
:0E124900D2AFD0D0D001D000D007D006D00553
:0E125700D004D003D002D083D082D0F0D0E0FB
:03126500D0203264
:03A8A200B4A880D7
:02A8A500450F5D
:02A8A700890F17
:02A8A900700F2E
:03A8AB00BDA880C5
:02A8AE00ED0FAC
:02A8B000311065
:02A8B20018107C
:09A8B400427574746F6E203100CE
:09A8BD00427574746F6E203200C4
:0C126800AA83E58290E11FF0A3EAF022C7
:0C127400C020C0E0C0F0C082C083C002F7
:0E128000C003C004C005C006C007C000C00106
:0E128E00C0D075D000AAE27B00ADE3E42AFADE
:0E129C00ED3BFB90E369EAF0A3EBF090E37FFB
:0E12AA007401F0C28B90E11FE0FAA3E0FB7C20
:0C12B80080BA0008BB0005BC00028016D4
:0912C40074DAC0E07412C0E0907D
:0D12CD00E11FE0C0E0A3E0C0E085C1822287
:0E12DA0090E37FE0604B90E33DE0FAA3E0FB81
:0E12E800A3E0FCA3E0FDAEE27F00A9E3E42E4C
:0E12F600FEE93FFF90E369E0F8A3E0F9EEC3E4
:0E13040098FEEF99FFE4F8F9EE2AFAEF3BFBB2
:0E131200E83CFCE93DFD90E33DEAF0A3EBF082
:0B132000A3ECF0A3EDF090E37FE4F0FD
:0E132B00D0D0D001D000D007D006D005D0041D
:0D133900D003D002D083D082D0F0D0E0D01D
:02134600203253
:011348003272
:0C134900AA83E58290E121F0A3EAF022E3
:0C135500C020C0E0C0F0C082C083C00215
:0E136100C003C004C005C006C007C000C00124
:0E136F00C0D075D000AAE27B00ADE3E42AFAFC
:0E137D00ED3BFB90E369EAF0A3EBF090E37F19
:0E138B007401F0C28F90E121E0FAA3E0FB7C38
:0C13990080BA0008BB0005BC00028016F2
:0913A50074BBC0E07413C0E090B9
:0D13AE00E121E0C0E0A3E0C0E085F982226B
:0E13BB0090E37FE0604B90E33DE0FAA3E0FB9F
:0E13C900A3E0FCA3E0FDAEE27F00A9E3E42E6A
:0E13D700FEE93FFF90E369E0F8A3E0F9EEC302
:0E13E50098FEEF99FFE4F8F9EE2AFAEF3BFBD1
:0E13F300E83CFCE93DFD90E33DEAF0A3EBF0A1
:0B140100A3ECF0A3EDF090E37FE4F01B
:0E140C00D0D0D001D000D007D006D005D0043B
:0D141A00D003D002D083D082D0F0D0E0D03B
:02142700203271
:011429003290
:0A142A00C008E581F5082408F581EB
:09143400E582FA20E0030214CD68
:0E143D0090E123E0FB90E124E0FCEB6C30E05A
:0E144B001DABE27C00AEE3E4FD2BFBEE3CFCAF
:0E14590090E36BEBF0A3ECF090E3807401F0F5
:0214670080649F
:0C14690090E380E0605EC00290E341A8C8
:0C1475000808E0F6A3E008F6A3E008F683
:0E148100A3E008F6ACE27D00AEE38E03E42C9F
:0E148F00FFEB3DFB90E36BE0FCA3E0FDEFC341
:0C149D009CFFEB9DFB7C007D00A8080874
:0E14A900EF26FFEB0836FBEC0836FCED0836AC
:0E14B700FD90E341EFF0A3EBF0A3ECF0A3ED0A
:0814C500F090E380E4F0D00296
:0714CD00EA20E103021565AE
:0E14D40090E123E0FB90E124E0FCEB6C30E1C2
:0E14E2001DABE27C00AEE3E4FD2BFBEE3CFC18
:0E14F00090E36DEBF0A3ECF090E3817401F05B
:0214FE00806507
:0C15000090E381E0605FC00290E345E5ED
:0C150C00082405F8E0F6A3E008F6A3E0D0
:0E15180008F6A3E008F6ABE27C00AFE3E42B9C
:0E152600FBEF3CFC90E36DE0FAA3E0FFEBC3AB
:0C1534009AFAEC9FFFE4FBFCE50824059C
:0E154000F8EA26FAEF0836FFEB0836FBEC0857
:0E154E0036FC90E345EAF0A3EFF0A3EBF0A328
:09155C00ECF090E381E4F0D00210
:07156500EA20E2030215F683
:0E156C0090E123E0FA90E124E0FBEA6B30E22C
:0E157A001DAAE27B00ADE3E4FC2AFAED3BFB88
:0E15880090E36FEAF0A3EBF090E3827401F0C1
:02159600805E75
:0A15980090E382E0605890E349A858
:0C15A2000808E0F6A3E008F6A3E008F655
:0E15AE00A3E008F6AAE27B00AFE3E42AFAEF1E
:0E15BC003BFB90E36FE0FEA3E0FFEAC39EFE60
:0C15CA00EB9FFF7A007B00A80808EE26CB
:0E15D600FEEF0836FFEA0836FAEB0836FB9007
:0E15E400E349EEF0A3EFF0A3EAF0A3EBF090E2
:0415F200E382E4F0BC
:0E15F60090E124E0FA90E123E062028A821282
:06160400459E850881D01F
:02160A000822B4
:09160C0012458290E124E4F09003
:04161500E123F022BB
:0E16190090E124E0FA90E123E06202EAF4FAA4
:0E162700F582C00212166E900190124C56D041
:06163500028A8202166E1B
:03163B00024583E2
:0D163E00AA8290E123E0FBF4FCEA52049044
:0A164B00E123EA4BF08C8202142A1E
:0D165500AA8290E123E0FBEA5BFCEAF4903E
:09166200E1235BF08C8202142AE2
:03166B0002166EF6
:0D166E00AA8290E124E06AF08A8202142A28
:0E167B00AA82AB83EA4B600675820102163E1E
:06168900758201021655F6
:0E168F00AA82AB83EA4B600675820202163E09
:06169D00758202021655E1
:0E16A300AA82AB83EA4B600675820402163EF3
:0616B100758204021655CB
:0416B70085C9C922F6
:0416BB0043C90822F5
:0E16BF00740F55C944A0F5C9740F55C94450A5
:0316CD00F5C9223A
:0316D0000216BF40
:0516D30075C903C2AF60
:0416D800000216D81E
:0A16DC00C008E581F5082407F58138
:0E16E60090E125E0FAA3E0FBA3E0FCEA4B4C08
:0C16F400700A90E128E4F0A3F0021873E3
:0C170000124CA8AA82AB83E5082403F871
:0E170C00A60208A60390E125E0FCA3E0FDA3E1
:0C171A00E0FEE5082405F8A60408A6057A
:0C17260008A606E5082405F8868208865F
:0E173200830886F0126CE4FFA3126CE4FAE563
:0C174000082405F8740226FBE40836FCBF
:0E174C000886058B828C838DF0126CE4FBA363
:0C175A00126CE4FCEB2FFFEC3AFAE508FF
:0C1766002403F8EFC396FFEA0896FAA8E7
:0A1772000808A60708A602E50824EF
:0E177C0005F8740426FCE40836FD0886068C89
:0E178A00828D838EF0126CE4FCA3126CE4FDE1
:0C179800A3126CE4FEE5082405F8A6048A
:0617A40008A60508A606D8
:0C17AA00E5082405F8B6000B08B600079F
:0717B60008B6000302185FF2
:0C17BD00E5082405F8868208868308866B
:0B17C900F0126CE4FCA3126CE4FDE5E0
:0C17D400082405F8740226FEE40836FF25
:0E17E0000886028E828F838AF0126CE4FAA3D0
:0C17EE00126CE4FBEA2CFEEB3DFFE5086A
:0C17FA002403F8EEC396FEEF0896FFA84B
:0C1806000808C3EE96EF0896501BEA2C71
:0C181200FCEB3DFDE5082403F8ECC39658
:0C181E00FCED0896FDA80808A60408A62A
:01182A0005B8
:0C182B00E5082405F8740426FAE40836E9
:0E183700FB0886048A828B838CF0126CE4FA24
:0B184500A3126CE4FBA3126CE4FCE5B2
:0C185000082405F8A60208A60308A60458
:03185C000217AAC6
:09185F00E5082403F8A90809902A
:0B186800E128E726F009E70836A3F0AE
:06187300850881D0082267
:0A187900C008E581F508240CF58194
:0E188300AA82AB83ACF07D01126CE4FEA312CE
:0B1891006CE4FFBE0005BF0002800BEE
:08189C00BE5A05BF0002801EC8
:0318A400021C66BD
:0918A70090E125E4F0A3F0A3F0A8
:0E18B0007D008A828B838CF0745A1244CBA385
:0418BE00E41244CB21
:0918C200ED7006758201021C782C
:0A18CB00E50824FDF8B6870280034B
:0318D500021A7084
:0C18D800E50824FAF88605088606088654
:0C18E40007E5082407F8A60508A606087A
:0218F000A60749
:0E18F20090E125E0FDA3E0FEA3E0FFED4E4FE8
:0E190000606EC002C003C00474072DFAE43EFE
:0E190E00FB8F048A828B838CF0126CE4FAA3A8
:0A191C00126CE4FBA3126CE4FCE57E
:0C192600082407F8E6B5020C08E6B5033B
:081932000708E6B50402800875
:08193A00D004D003D002802E7E
:0E194200D004D003D00274042DFDE43EFE8DCF
:0E195000828E838FF0126CE4FDA3126CE4FE15
:0E195E00A3126CE4FF90E125EDF0A3EEF0A3E0
:04196C00EFF0808296
:0E19700090E125E0FDA3E0FEA3E0FFED4E4F69
:05197E0070030218B027
:0B198300A80808A60508A60608A6078D
:0C198E00A80808740426FDE40836FE08D2
:0C199A0086078D828E838FF0E508240AFA
:0D19A600F8126CE4F6A3126CE408F6A3122C
:0C19B3006CE408F6E508240AF8E6084693
:0719BF00084670030218B096
:0C19C600C002C003C004E508240AF87445
:0E19D2000726FAE40836FB0886048A828B8317
:0D19E0008CF0126CE4FAA3126CE4FBA3126D
:0C19ED006CE4FCE5082407F8E6B5020CE9
:0C19F90008E6B5030708E6B50402800804
:081A0500D004D003D00280419F
:0C1A0D00E508240AF8740426FAE4083600
:0E1A1900FB0886048A828B838CF0126CE4FA40
:0E1A2700A3126CE4FBA3126CE4FC8D828E8390
:0E1A35008FF0EA1244CBA3EB1244CBA3EC12C9
:0B1A430044CBD004D003D00202198E67
:0E1A4E008D828E838FF0126CE4FDA3126CE487
:0C1A5C00FEA3126CE4FFA80808A6050811
:081A6800A60608A60702198E6C
:0A1A7000E50824FDF8B682028003A9
:031A7A000218B09F
:0C1A7D00E5082404F8E4F608F6087600FA
:0C1A890090E125E0FDA3E0FEA3E0FFA833
:0A1A95000808A60508A60608A60723
:0C1A9F00A80808B6000B08B6000708B63F
:051AAB0000030218B069
:0C1AB000A8080886820886830886F0C01B
:0E1ABC0002C003C0041240CAE5828583F0D048
:0C1ACA0004D003D00245F07003021C247D
:0C1AD600C002C003C004A8080874072662
:0E1AE200FDE40836FE0886078D828E838FF0A5
:0B1AF000126CE4FAA3126CE4FBA312DA
:0C1AFB006CE4FCC004C005C006C007A8D5
:0C1B07000808E6C0E008E6C0E008E6C000
:0E1B1300E07488C0E08A828B838CF0122DDB98
:0E1B2100AA82AB83E58124FCF581D007D006B3
:0E1B2F00D005D004EA4BD004D003D0026003EE
:031B3D00021C1572
:0D1B40008D828E838FF0E41244CBA3E4125B
:081B4D0044CBA3E41244CBE5F4
:0C1B5500082404F8E6084608466054C066
:0C1B610002C003C004E5082404F874046A
:0C1B6D0026FDE40836FE088607A80808DC
:0E1B7900740426FAE40836FB0886048A828B80
:0E1B8700838CF0126CE4FAA3126CE4FBA31240
:0E1B95006CE4FC8D828E838FF0EA1244CBA3A9
:0E1BA300EB1244CBA3EC1244CBD004D003D001
:031BB10002802D82
:0C1BB400A80808740426FDE40836FE08AA
:0E1BC00086078D828E838FF0126CE4FDA312D7
:091BCE006CE4FEA3126CE4FF902C
:0A1BD700E125EDF0A3EEF0A3EFF01E
:0C1BE100A80808740426FDE40836FE087D
:0E1BED0086078D828E838FF0E41244CBA3E432
:0E1BFB001244CBA3E41244CBC002C003C004CA
:0C1C09001216DCD004D003D002021A7DB9
:0E1C1500C002C003C004121C7ED004D003D055
:011C230002BE
:0A1C2400A80808E5082404F9E6F713
:0C1C2E000809E6F70809E6F7A8080874A2
:0E1C3A000426FDE40836FE0886078D828E83A0
:0D1C48008FF0126CE4FDA3126CE4FEA312F9
:0C1C55006CE4FFA80808A60508A6060815
:051C6100A607021A9F16
:0D1C66008A828B838CF0E41244CBA3E4123D
:051C730044CB75820363
:061C7800850881D008225E
:091C7E0090ECA375F000022EA603
:0A1C8700C008858108C082C083C038
:0C1C9100F0121C7EA80808740726FDE471
:0D1C9D000836FE0886078D828E838FF012B8
:0A1CAA006CE4FAA3126CE4FBA31231
:0E1CB4006CE4FCEA4B4C606290E125E0FAA380
:051CC200E0FBA3E0FCC3
:0B1CC700BA0008BB0005BC0002804C06
:0C1CD200A80808E6B5020C08E6B50307F8
:071CDE0008E6B504028002D4
:021CE500800677
:061CE7001216DC021D7D57
:0E1CED00C005C006C00774042AFDE43BFE8C4F
:0D1CFB00078D828E838FF0126CE4FDA31222
:0E1D08006CE4FEA3126CE4FF8D028E038F04C8
:081D1600D007D006D00580A91A
:0E1D1E0090ECC4E0FAA3E0FBA3E0FC8D828E03
:0E1D2C00838FF0EA1244CBA3EB1244CBA3EC5E
:0C1D3A001244CBA80808740426FAE40840
:0E1D460036FB08860490E125E0FDA3E0FEA335
:0E1D5400E0FF8A828B838CF0ED1244CBA3EE6D
:091D62001244CBA3EF1244CBA8FC
:0C1D6B00080890E125E6F008A3E6F00867
:061D7700A3E6F01216DCE9
:061D7D00850881D0082258
:0A1D8300C008858108AA82AB83AC7A
:0C1D8D00F0C002C003C004E50824FCF80C
:0E1D9900E6C0E008E6C0E08A828B838CF01280
:0E1DA700401815811581D004D003D0028A8225
:0A1DB5008B838CF0121C87D00822EB
:0D1DBF00AA82AB83ACF0C002C003C00412C6
:0E1DCC004066D004D003D0028A828B838CF054
:031DDA00021C8761
:0D1DDD00AA82AB83ACF0C002C003C00412A8
:0E1DEA0040A2D004D003D0028A828B838CF0FA
:031DF800021C8743
:0A1DFB00C008858108C082C083C0C3
:0C1E0500F0A8080886820886830886F092
:0A1E1100126CE4FDA3126CE4FEE580
:0C1E1B000824FCF88607088602EF2DFD65
:0C1E2700EA3EFEA80808868208868308B0
:0C1E330086F0ED1244CBA3EE1244CB125B
:061E3F0016DC850881D0CD
:021E4500082271
:0E1E4700AA82AB83ACF074072AFAE43BFB8A54
:0E1E5500828B838CF0126CE4FAA3126CE4FB17
:0E1E6300A3126CE4FCE4BA0007BB0004BC0050
:021E710001046A
:091E7300FA3395E08A82F583221E
:0E1E7C00AA82AB83ACF0126CE4FDA3126CE4FE
:0E1E8A00FE74022AFAE43BFB8A828B838CF002
:0E1E9800126CE4FAA3126CE4FBEA2DFDEB3EA3
:051EA6008D82F583228E
:0D1EAB00126CE4FAA3126CE48A82F5832223
:0E1EB80090E125E0FAA3E0FBA3E0FCE4BA0011
:081EC60007BB0004BC0001048D
:041ECE00FAB4010061
:0A1ED200E433FA7B008A828B83223E
:0D1EDC00121EB8E5828583F045F0600A9083
:091EE900E128E0FAA3E0FB80040B
:041EF2007A007B00F7
:051EF6008A828B8322AB
:0A1EFB00C008858108C082C083C0C2
:0D1F0500F090E125E0FDA3E0FEA3E0FFA8C1
:0C1F12000808E6B5050C08E6B50607084F
:061F1E00E6B50702800297
:021F2400802E0D
:0E1F260074042DFAE43EFB8F048A828B838CB8
:0C1F3400F0126CE4FAA3126CE4FBA312A0
:0E1F40006CE4FC90E125EAF0A3EBF0A3ECF0DA
:061F4E001216DC021FDC8C
:0B1F5400BD0008BE0005BF0002803881
:0E1F5F0074042DFAE43EFB8F048A828B838C7F
:0C1F6D00F0126CE4FAA3126CE4FBA31267
:0C1F79006CE4FCA80808E6B5020C08E6C1
:0A1F8500B5030708E6B50402800862
:081F8F008A058B068C0780BD5A
:0D1F9700ED4E4F604074042DFDE43EFEA8A9
:0C1FA4000808740426FAE40836FB0886DE
:0D1FB000048A828B838CF0126CE4FAA31279
:0E1FBD006CE4FBA3126CE4FC8D828E838FF02B
:0C1FCB00EA1244CBA3EB1244CBA3EC12AF
:051FD70044CB1216DCF2
:0C1FDC00A80808740426FAE40836FB0884
:0E1FE80086048A828B838CF0E41244CBA3E43F
:091FF6001244CBA3E41244CBA871
:0C1FFF000808740726FAE40836FB088680
:0E200B00048A828B838CF0E41244CBA3E4128F
:0820190044CBA3E41244CB8583
:052021000881D0082237
:09A9960000000079180000000027
:09202600122FE1AA82AB83ACF099
:0E202F00EA4B4C605E74052AFDE43BFE8C0714
:0E203D008D828E838FF0126CE4FDA3126CE492
:0E204B00FEC002C003C004C005C0067401C080
:0A205900E0E4C0E0746DC0E0742004
:0A206300C0E0C005C0069000812215
:0E206D0015811581D006D005D004D003D00215
:0E207B008A828B838CF0122FF3AD82AE83AF7E
:09208900F08D028E038F04809D8E
:0E209200AAE27B00ADE37C00EC2AFAED3BFBFA
:0E20A00090E379EAF0A3EBF090E3877401F08F
:0120AE00220F
:0A20AF00C008E581F5082404F5815E
:0920B900122FE1AA82AB83ACF006
:0E20C200EA4B4C605C74052AFDE43BFE8C0783
:0E20D0008D828E838FF0126CE4FDA3126CE4FF
:0E20DE00FEC002C003C004C005C006E4C0E09E
:0A20EC00C0E074FEC0E07420C0E004
:0820F600C005C0069000812224
:0E20FE0015811581D006D005D004D003D00284
:0E210C008A828B838CF0122FF3AD82AE83AFEC
:09211A00F08D028E038F04809FFA
:0A21230090E387E0605A90E35DA8A6
:0C212D000808E0F6A3E008F6A3E008F6BE
:0E213900A3E008F6AAE27B00AFE37E00EE2AE8
:0E214700FAEF3BFB90E379E0FEA3E0FFEAC372
:0C2155009EFEEB9FFF7A007B00A80808AC
:0E216100EE26FEEF0836FFEA0836FAEB0836E7
:0E216F00FB90E35DEEF0A3EFF0A3EAF0A3EB2C
:06217D00F090E387E4F09E
:06218300850881D008224E
:03A99F003BA98051
:03A9A200A2A880E8
:06A9A500ABA880000000D9
:062189001223A8BC0003B4
:03218F00025F7775
:08219200EF60FA30D502B2D172
:08219A00E583B4FF03025F8D31
:0821A200E582B4FF03025F8D2A
:0B21AA00258340072482400B025F7772
:0821B5002483145003025F8D26
:0E21BD00F582EA8DF0A4A8F0EA8EF0A428F8CE
:0E21CB00E435F0F9EB8DF0A428E935F0F9E4E5
:0E21D90033CA8FF0A429F9EA35F0FAEBF88E3C
:0E21E700F0A429F9EA35F0FAE433FBEC8DF0B0
:0E21F500A429F9EA35F0FAE43BFBE88FF0A4E8
:0E2203002AFAEB35F0FBE433CCFD8EF0A42A72
:0E221100FAEB35F0FBE43CFCED8FF0A42BFB68
:0A221F00EC35F0FC20E703122F1449
:03222900025F56FB
:03222C00023B82F0
:0A222F00C00885810805810581AA19
:0C22390082AB83ACF0A80808E4F608F6BD
:0E22450090E12EE0FFA3E0FDA3E0FEEF4D4E82
:0A2253007008A8080876010876005C
:0E225D0074022AFDE43BFE8C078D828E838F77
:0C226B00F0E50824F8F8E61244CBA308C4
:0E227700E61244CB74042AFDE43BFE8C078D76
:0C228500828E838FF0E50824F5F8E61245
:0C22910044CBA308E61244CBA308E612DD
:0C229D0044CB8A828B838CF0E50824FC83
:0C22A900F8E61244CBA308E61244CB90E8
:0C22B500E12EEAF0A3EBF0A3ECF0A80887
:0C22C10008B6011108B6000DE50824FC69
:0922CD00F88682088683123B9B0F
:0922D600900000850881D0082267
:0A22DF00C00885810805810581050E
:0E22E9008190E12EE0FAA3E0FBA3E0FCEA4BBB
:0622F7004C70030223A25B
:0C22FD00A80808A60208A60308A6049082
:0C230900E12EE4F0A3F0A3F0A808087493
:0E2315000226FDE40836FE0886078D828E83C0
:0C2323008FF0126CE4FDA3126CE4FEA825
:0C232F000808740426FFE40836FA08864B
:0D233B00038F828A838BF0126CE4FFA312E3
:0E2348006CE4FAA3126CE4FBC005C006C007EB
:0A235600C002C0037472C0E07423DB
:0C236000C0E0C005C006A808088682087E
:06236C0086830886F022C2
:0E237200158115811581D006D00590E12EE071
:0E238000FAA3E0FBA3E0FCEA4B4C60168A8255
:0E238E008B838CF0126CE4FAA3126CE4FB8AD1
:06239C00828B83123B9BC3
:0623A200850881D008222D
:0D23A800AA82AB83A2F73392D16002D2F774
:0E23B500F582ACF0E58124F9F8E6FD08E6FEBD
:0E23C3000886F008E6A2F73392D56002D2F742
:0523D100F583AFF022CE
:0D23D60043FE0A43FD0443F3E075820E024E
:0223E30023E5F0
:0C23E500AA827B01C0E0C0A8C2AF7C004F
:0323F100BC080025
:0E23F4005025EB5AFDEC6010ED600D8CF005ED
:04240200F0ED800277
:02240600C313FE
:04240800D5F0FBFD13
:0E240C00ED24FF9282D293C293EB2BFB0C8047
:01241A00D6EB
:0E241B00D291C291D0E053E080E5E042A8D01B
:07242900E090E131EAF0222E
:0724300090E131E0F582228A
:0600B400E478FFF6D8FD20
:0501260090E1B9E4F0D6
:09243700AA82BA0D0490000022F3
:0E24400090E1B9E0FB701DC00290E13275F032
:0E244E00001250DBAB82AC831581EB4C702585
:08245C0090E1B97401F0801D4C
:0E246400BA0A1AC00290E13275F0001250DB85
:0E247200AA82AB831581EA4B600590E1B9E4C4
:01248000F06B
:0D24810090ECB875F000122EA6900001221C
:0A248E00C00885810805810581AAB8
:0D24980082AB83ACF07D01126CE4FEA31258
:0B24A5006CE4FFBE0005BF00028014C5
:0824B000BE6805BF0002806553
:0924B800BE7A06BF0003022618DB
:0324C100022634BC
:0E24C400C002C003C004122681E582D004D0FD
:0E24D20003D00290E1B8F090E23AE4F0A3F0FB
:0D24E00090E13275F000C002C003C004128C
:0D24ED0051E8AE82AF83D004D003D002A826
:0A24FA000808A60608A607A80808AF
:0E250400B6FF1F08B6FF1B7D008A828B838CFA
:0B251200F074681244CBA3E41244CB29
:09251D00ED70C075820102264632
:0C252600A80808B60A0608B600028040AB
:0E25320090E23AE0FEA3E0FFC3EE947FEF6478
:0E254000809480509BC002C003C00490E23A19
:0C254E0074012EF0E43FA3F0EE24BAFE6E
:0A255A00EF34E1FFA8080886028EA6
:0E256400828F83EAF0D004D003D0020224E07C
:0E257200C002C003C00490E23AE0FEA3E0FF06
:0D25800090E23A74012EF0E43FA3F0EE2447
:0A258D00BAF582EF34E1F583E4F0C3
:0B259700C002C003C00474BAC0E074AE
:0C25A200E1C0E0E4C0E090E1B8E0C0E07F
:0E25AE0090000075F000122DDBE58124FCF595
:0E25BC0081D004D003D00290ECC4E0FEA3E076
:0E25CA00FFA3E0FAC004E4C0E0C0E0C0E0748B
:0E25D80085C0E08E828F838AF0122DDBAA82EE
:0E25E600AB83E58124FCF581D004BA0005BB6F
:0425F4000002800859
:0825F800D004D003D002802AB8
:0E260000D004D003D0027D008A828B838CF040
:0A260E00747A1244CBA3E41244CB0B
:0C261800ED600AE50824FDF8B68502809C
:0126240005B0
:05262500758201801C1C
:0A262A0090E23AE4F0A3F00224E08D
:0D2634008A828B838CF0E41244CBA3E41265
:0526410044CB7582038B
:06264600850881D0082286
:0A264C007480C0E07438C0E074E14F
:0E265600C0E0E4C0E090E13275F00012505C8C
:0E266400E58124FCF581E4C0E0C0E0C0E09018
:0E267200ECB875F00012268E158115811581C9
:012680002237
:09A9AB000000008E2400000000F1
:0D26810090E23CE0FA90E23C04F08A8222F4
:0A268E00C008858108C082C083C027
:0E269800F090ECC1E0FDA3E0FEA3E0FF8D0298
:0426A6008E038F040C
:0C26AA00A80808E6B5020C08E6B5030716
:0726B60008E6B504028021D3
:0B26BD00BA0008BB0005BC000280163C
:0E26C8008A828B838CF0126CE4FAA3126CE40D
:0826D600FBA3126CE4FC80CCB4
:0C26DE00A80808E6B5020C08E6B50307E2
:0726EA0008E6B504028002BE
:0226F100800364
:0326F30002277D3E
:0C26F600A8080886820886830886F0ED9C
:0B2702001244CBA3EE1244CBA3EF1255
:06270D0044CBA80808906F
:0D271300ECC1E6F008A3E6F008A3E6F0A88C
:0C2720000808740726FAE40836FB088657
:0D272C00048A828B838CF074011244CBA8C8
:0C2739000808740526FAE40836FB088640
:0E274500048A828B838CF0E41244CBA3E4124E
:0C27530044CBE50824FBF8E6C0E008E6F3
:0C275F00C0E008E6C0E07481C0E0A808FB
:0E276B000886820886830886F0122E4FE581CC
:0427790024FCF581C6
:06277D00850881D008224E
:0A278300C008858108C082C083C031
:0E278D00F0E5812409F58190ECC4E0FDA3E0A5
:0C279B00FEA3E0FFE5082407F8A60508EF
:0C27A700A60608A607A808088682088677
:0E27B300830886F0122EEAE5828583F045F059
:0527C10070030229096C
:0C27C600A80808740726FDE40836FE0889
:0D27D20086078D828E838FF0E41244CB9039
:0C27DF00ECC1E0FDA3E0FEA3E0FFE50874
:0B27EB002404F8A60508A60608A607AF
:0C27F600E5082404F8B6000A08B6000646
:0628020008B60002806927
:0A280800A80808E5082404F986F08A
:0E281200E7B5F0120886F009E7B5F00A08866F
:08282000F009E7B5F002802881
:0C282800A80808E6C0E008E6C0E008E6EA
:0C283400C0E07487C0E0E5082404F886CA
:0E284000820886830886F01229FEE58124FCBA
:02284E00F58112
:0C285000E5082404F886820886830886C8
:0E285C00F0126CE41818F6A3126CE408F6A350
:07286A00126CE408F6808502
:0C287100A80808740326FDE40836FE08E1
:0E287D0086078D828E838FF0126CE4FAA31210
:0E288B006CE4FB8A058B067F80BD0008BE0052
:0628990005BF0002806A89
:0A289F00A80808E50824FBF986F0FC
:0E28A900E7B5F0120886F009E7B5F00A0886D8
:0828B700F009E7B5F002804AC8
:0C28BF00A8080890ECC4E6F008A3E6F0BE
:0C28CB0008A3E6F0A80808740526FDE448
:0E28D7000836FE088607C002C003E4C0E0C059
:0C28E500E0C0E07483C0E074FFC0E07449
:0C28F10028C0E0C002C0038D828E838FDF
:0228FD00F022C7
:0A28FF00E58124FCF581D003D0022E
:0C29090090ECC1E0FAA3E0FBA3E0FCA806
:0C2915000808E6B5020C08E6B503070848
:06292100E6B5040280028D
:0229270080220C
:0E2929008A828B838CF0126CE4FDA3126CE4A6
:0E293700FEA3126CE4FF90ECC1EDF0A3EEF0F5
:06294500A3EFF00229E6F9
:0C294B008A058B068C07E5082404F8A61A
:072957000508A60608A6070B
:0C295E00E5082404F8B6000A08B60006DC
:06296A0008B600028076B1
:0C297000E5082404F886820886830886A7
:0C297C00F0126CE4FDA3126CE4FEA31248
:0C2988006CE4FFA80808E6B5050C08E6A2
:0A299400B5060708E6B50702800249
:02299E00803681
:0C29A000A8080886820886830886F012CA
:0A29AC006CE4FAA3126CE4FBA31222
:0C29B6006CE4FCE5082404F88682088626
:0E29C200830886F0EA1244CBA3EB1244CBA3A9
:0629D000EC1244CB801064
:0C29D600E5082404F8A60508A60608A6DB
:0429E2000702295E61
:0C29E600E5082407F890ECC4E6F008A314
:0A29F200E6F008A3E6F0850881D0A6
:0229FC000822AF
:0A29FE00C008858108C082C083C0B4
:0C2A0800F0A80808740726FDE40836FE5C
:0E2A14000886078D828E838FF0126CE4FA2004
:052A2200E003022B326D
:0C2A2700C005C006C007A80808740326FC
:0E2A3300FAE40836FB0886048A828B838CF056
:0E2A4100126CE4FAA3126CE4FB8A048B057E8F
:0E2A4F0080BC000FBD000CBE0009D007D006F1
:052A5D00D005022B3240
:0C2A6200D007D006D005A8080890ECC4EE
:0E2A6E00E6F008A3E6F008A3E6F08D828E8362
:0E2A7C008FF074021244CBC005C006C007A83C
:0C2A8A000808740526FCE40836FD0886E8
:0C2A960006C003C005C006C007E5082408
:0E2AA200FAF8E6C0E008E6C0E008E6C0E0E5AD
:0A2AB0000824FDF8E6C0E074CAC077
:0C2ABA00E0742AC0E0C002C0038C828DD2
:042AC600838EF022E9
:0E2ACA00AA82E58124FCF581D007D006D00554
:0E2AD800D003EA3395E0FBBA020BBB0008D036
:072AE60007D006D0058016A1
:0E2AED00D007D006D005BA0305BB0002800852
:082AFB00E50824FDF8B6832470
:0C2B0300A80808E6C0E008E6C0E008E60C
:0C2B0F00C0E0A8080886820886830886BB
:0C2B1B00F0122783158115811581800BB5
:0B2B27008D828E838FF074011244CB6E
:062B3200850881D0082295
:0E2B3800AA82AB83ACF090ECC4E0C0E0A3E056
:0D2B4600C0E0A3E0C0E08A828B838CF01217
:092B5300278315811581158122EB
:0C2B5C0090E23C748AF090E23EE4F090BD
:0C2B6800E23DF090ECC1F0A3F0A3F0906F
:092B7400ECC4E4F0A3F0A3F0228C
:0A2B7D00C008858108058105810567
:0E2B87008190E31FE4F090ECC1E0FAA3E0FBC4
:0C2B9500A3E0FCA80808A60208A603089C
:022BA100A60488
:0C2BA300A80808B6000B08B6000708B62A
:052BAF000003022C2FC1
:0C2BB400A80808740826FDE40836FE0896
:0E2BC00086078D828E838FF0126CE46042A82F
:0C2BCE000808740726FAE40836FB0886A5
:0E2BDA00048A828B838CF074011244CB8D82AE
:0E2BE8008E838FF0E41244CBE4C0E0C0E0C066
:0C2BF600E07482C0E0A80808868208860F
:0D2C0200830886F01229FEE58124FCF5818F
:0C2C0F00A8080886820886830886F01258
:0D2C1B006CE41818F6A3126CE408F6A3127E
:072C28006CE408F6022BA387
:062C2F00850881D0082297
:082C350090E23DE0FA7001227B
:0C2C3D0090E23EE0FB75F007A4FC243F91
:0C2C4900F582E434E2F583E090E320F033
:0A2C5500EC243FFCE434E2FD8C8225
:0E2C5F008D83A3E0FEA3E0FFA3E0F890E32145
:0E2C6D00EEF0A3EFF0A3E8F08C828D83A3A31A
:0E2C7B00A3A3E0FCA3E0FDA3E0FE90E324ECA5
:0E2C8900F0A3EDF0A3EEF07C000BBB00010CFD
:0E2C9700C0027420C0E0E4C0E08B828C831287
:0E2CA5006D00AB8215811581D00290E23EEBEE
:0E2CB300F0EA1490E23DF090E324E0FAA3E092
:0E2CC100FBA3E0FCBA0008BB0005BC000280CB
:012CCF000301
:032CD000022D6270
:0E2CD30090ECC1E0FDA3E0FEA3E0FF90E3273C
:082CE100EDF0A3EEF0A3EFF00B
:0E2CE90090E327E0FDA3E0FEA3E0FFBD00079F
:072CF700BE0004BF00012232
:0A2CFE0090E31FE0FD6003122B7D40
:0E2D080090E327E0FDA3E0FEA3E0FF90E321AF
:0E2D1600E0C0E0A3E0C0E0A3E0C0E090E32056
:0E2D2400E0C0E08D828E838FF01229FEE581E3
:0E2D320024FCF58190E327E0FDA3E0FEA3E082
:0D2D4000FF8D828E838FF0126CE4FDA312D4
:092D4D006CE4FEA3126CE4FF909B
:0C2D5600E327EDF0A3EEF0A3EFF0808780
:0E2D620090E320E0FDBD811474072AFEE43BDF
:0E2D7000FF8C008E828F8388F074011244CB9A
:0E2D7E0090E321E0C0E0A3E0C0E0A3E0C0E0ED
:0E2D8C00C0058A828B838CF01229FEE581241B
:042D9A00FCF58122A1
:0A2D9E0090E31FE0FA6003122B7DA2
:0B2DA800122C3590E23DE0FA7B009019
:0E2DB300E31FE0FC7D00EC2AFAED3B8A82F57E
:022DC10083226B
:0E2DC30090E23DE0FA7B0090E31FE0FC7D0013
:0A2DD100EC2AFAED3B8A82F583221A
:0A2DDB00C008858108AA82AB83AC12
:0E2DE500F090E23DE0FDBD2005900001805918
:0E2DF30090E23EE0FEED2E541FFE90E32AF02B
:0C2E0100EE75F007A4FE243FF582E434D7
:0A2E0D00E2F583E50824FDF8E6F085
:0A2E1700EE243FFEE434E2FF8E8259
:0C2E21008F83A3E50824FAF8E6F0A3086C
:0E2E2D00E6F0A308E6F08E828F83A3A3A3A392
:0E2E3B00EAF0A3EBF0A3ECF090E23DED04F022
:032E4900900000F6
:032E4C00D0082289
:0A2E4F00C008858108AA82AB83AC9D
:0E2E5900F090ECC4E0FDA3E0FEA3E0FFC00596
:0C2E6700C006C007E50824FAF8E6C0E049
:0C2E730008E6C0E008E6C0E0E50824FD29
:0E2E7F00F8E6C0E08A828B838CF01229FEE513
:0E2E8D008124FCF581D007D006D00590ECC45E
:0B2E9B00EDF0A3EEF0A3EFF0D0082252
:0E2EA600AA82AB83ACF0BA0007BB0004BC00EC
:022EB4000122F9
:0E2EB60074072AFDE43BFE8C078D828E838F0D
:0A2EC400F0126CE4FDBD0102800372
:032ECE00BD02182A
:0E2ED10074082AFAE43BFB8A828B838CF0742F
:0A2EDF00011244CB90E31F7401F0D0
:012EE90022C6
:0E2EEA00AA82AB83ACF074072AFAE43BFB8AA1
:0E2EF800828B838CF0126CE4FAE4BA000104C1
:042F0600FAB4010018
:0A2F0A00E433FA7B008A828B8322F5
:03A9B400000000A0
:03A9B7000000009D
:022F140078043F
:0E2F1600EC700DC9CACBFCE58224F8F582D818
:022F2400F12298
:022F2600782011
:0E2F280020E7111582C3E933F9EA33FAEB33DF
:062F3600FBEC33FCD8ECBB
:012F3C002272
:0A2F3D00C008858108C082C083C06F
:0C2F4700F005810581E4FDFEE50824048E
:092F5300F8E4F608F67B007C00AE
:0C2F5C00C005C00690E32CE0FD7E00E5FF
:0C2F6800082404F8C3E69D08E664808E8F
:0E2F7400F063F08095F0D006D0055057C005F0
:0A2F8200C006EB24ACF582EC34EC41
:0C2F8C00F583E0FDA3E0FEA3E0FAA80836
:0E2F980008E6B5050C08E6B5060708E6B50222
:032FA600028006A0
:062FA900D006D005800AED
:0A2FAF00D006D0058D828E838022AB
:0C2FB90074032BFBE43CFCE5082404F846
:062FC50006B6000208063A
:0C2FCB00E5082404F886050886068085C9
:042FD7008D828E83D6
:062FDB00850881D00822E8
:0E2FE10090ECACE0FAA3E0FBA3E0FC8A828B4C
:042FEF00838CF022BD
:0E2FF300122F3DE5828583F02401FAE435F0CB
:0E300100FBC002C0039000031244E4AA82AB9D
:0C300F008315811581EA24ACF582EB34B6
:0C301B00ECF583E0FAA3E0FBA3E0FC8AE4
:06302700828B838CF02275
:0C302D00122F3DAA82AB83EA242AFAEBA2
:0C30390034E1FB8A828B83E0FC430480BE
:0D3045008A828B83ECF090ECC775F00002DE
:023052002EA6A8
:0A305400C008858108C082C083C057
:0C305E00F0E5812408F581A808088682AE
:0C306A000886830886F0126AACC8E508EE
:0E3076002404C8A68208A6837F007D007E0089
:023084007A00D0
:0E30860090E32CE0FB7C00C3EF9BED64808C9C
:0B309400F063F08095F0400302314231
:0B309F00C007C005EE24ACF582EA3447
:0C30AA00ECF583E0FBA3E0FCA3E0FD8B51
:0E30B600828C838DF0126CE4FBA3126CE4FCA0
:0E30C400A3126CE4FDC002C005C006C007E503
:0C30D200082404F8E6C0E008E6C0E0C0F6
:0C30DE0003C004C005A80808868208860C
:0E30EA00830886F0125633AB82AC83E5812456
:0E30F800FBF581D007D006D005D002D005D060
:0C31060007EB4C7028EE24ACF582EA3494
:0A311200ECF583E5082406F8E0F66A
:0C311C00A3E008F6A3E008F6E50824068E
:0B312800F886820886830886F0801578
:0C31330074032EFEE43AFA0FBF00010DF9
:03313F00023086D5
:0631420090000075F00092
:06314800850881D0082279
:0A314E00C008858108058105810590
:0E31580081AA82AB83ACF07D01126CE4FEA371
:0C316600126CE4FFBE0005BF00028015E3
:09317200BE7806BF0003023276AC
:09317B00BE7F06BF000302334BC6
:033184000233AE65
:0E318700C002C003C004122681E582D004D02D
:0E31950003D00290E32BF090E32DE4F0A3F0C2
:0E31A300C002C003C00490E32DE0FEA3E0FFD5
:0E31B100C004C006C007C006C007900003128D
:0E31BF0044E4AA82AB8315811581D007D006A7
:0A31CD00D004EA24ACF582EB34ECE8
:0C31D700F583A80808E0F6A3E008F6A3C2
:0C31E300E008F6A80808B6001008B600C6
:0D31EF000C08B60008D004D003D0028063A5
:0A31FC00EE242AF582EF34E1F5839A
:0C320600E4F0A80808740526FAE4083675
:0E321200FB0886048A828B838CF0126CE4FA2F
:0E322000A3126CE4FBC002C003C004E4C0E0D3
:0A322E00C0E07440C0E07432C0E05C
:08323800C002C00390008022D7
:0E32400015811581D004D003D00290E32DE05B
:0E324E002401F0A3E03400F0D004D003D0023D
:03325C000231A399
:05325F0090E32CEEF0ED
:0E3264007D008A828B838CF074781244CBA399
:04327200E41244CB53
:09327600ED70067582010233C0FF
:0E327F0090E32FE4F0A3F090E32DE4F0A3F031
:0E328D00C002C003C00490E32DE0FEA3E0FFEA
:0E329B0090E32CE0FA7B00C3EE9AEF64808B88
:0E32A900F063F08095F0D004D003D002400313
:0332B70002339D42
:0C32BA00C002C003C004EE242AF582EF1D
:0C32C60034E1F583E0D004D003D00220F6
:0532D200E70302338E4A
:0E32D700C002C003C004C002C003C004C00691
:0E32E500C0079000031244E4AE82AF8315814F
:0C32F3001581D004D003D002EE24ACF50D
:0C32FF0082EF34ECF583E0FEA3E0FFA3B7
:0E330B00E0FAC004C006C007C00290E32BE049
:0E331900C0E090000075F000122DDBAA82AB20
:0E33270083E58124FCF581D004EA4BD004D06C
:0E33350003D0027029FD8A828B838CF0747F96
:083343001244CBA3E41244CBB9
:0C334B00ED601090E32BE0FDE50824FD90
:07335700F8E6B50502800550
:05335E00758201805D95
:0C33630090E32DE0FDA3E0FEED242AFD28
:0C336F00EE34E1FE8D828E83E0FF5307F8
:0E337B007F8D828E83EFF090E32FE02401F02F
:05338900A3E03400F098
:0D338E0090E32DE02401F0A3E03400F002F4
:02339B00328D71
:0E339D0090E32FE0FDA3E0FE4D600302327FBF
:0333AB0002326487
:0D33AE008A828B838CF0E41244CBA3E412DE
:0533BB0044CB75820304
:0633C000850881D00822FF
:09A9BA000000004E310000000015
:0E33C6007582E61241747582E612417453E975
:0233D400DF22F6
:0733D600AA82BA0102802067
:0533DD00BA0202800AA3
:0533E200BA03028005A2
:0533E700BA053580224B
:0E33EC0090DF02E04410F090DF03E0FA54EFAF
:0333FA00F080312F
:0E33FD0090DF02E04418F090DF03E0FA441085
:03340B00F080202E
:0E340E0090DF02E04408F090DF03E0FA54EF94
:03341C00F0800F2E
:0E341F0090DF02E054E7F090DF03E0FA54EF94
:01342D00F0AE
:04342E007582012280
:0A343200C008858108C082C083C075
:01343C00F09F
:0E343D0090DF62E0FD20E4F890E332E0FD3025
:07344B00E60590FFFF805031
:07345200ED20E7031239B978
:0C3459007582E7124174E50824FCF88637
:083465000574022DF5D97D006C
:0C346D008D067F00E50824FCF8C3EE96F5
:0C347900EF0896501BA80808ED26FEE4A2
:0D3485000836FF0886028E828F838AF012BF
:073492006CE4F5D90D80D4B4
:0934990075D90075D900900000FE
:0634A200850881D008221C
:0834A80090DF62E090000022B9
:0E34B00090DF62E0FA5302047B008A828B8375
:0134BE0022EB
:0B34BF0090ECD0E0FA600490000022C6
:0834CA0090DF17E0FA54F7F05F
:0D34D20090DF17E0FA530210BA010280F3F8
:0834DF00E5E930E7FB53BEFBF9
:0E34E700E5BE30E6FB90E332E4F090DF547473
:0E34F50001F090DF027402F090DF0374E2F049
:0E35030090DF047430F090DF05E4F090DF0CF0
:0D3511007432F090DF0D74F5F07582121227
:0C351E0039087582E71241747582E612CC
:0E352A004174E4C0E0C0E0C0E0E4C0E0C0E0F6
:0E35380090FFFF123A83E58124FBF581758236
:0E354600001233D675912053E9DF539BFC90A1
:09355400ECD07401F0900001229A
:0A355D00C008E581F5082408F58197
:0E356700E4C0E0758200123AF5AA82AB83152B
:0E35750081BA0132BB002F90E5E8E0FAA3E036
:0E358300FBA3E0FCA3E0FD0ABA00090BBB00AD
:06359100050CBC00010D59
:0E35970090E5E8EAF0A3EBF0A3ECF0A3EDF072
:0635A50090000202374E07
:0E35AB0090DF62E0FA30E12F90E5E8E0FAA34D
:0E35B900E0FBA3E0FCA3E0FD0ABA00090BBB97
:0735C70000050CBC00010D22
:0E35CE0090E5E8EAF0A3EBF0A3ECF0A3EDF03B
:0635DC0090000202374ED0
:0A35E20090E384E0605890E351A8E4
:0C35EC000808E0F6A3E008F6A3E008F6EB
:0E35F800A3E008F6AAE27B00AFE3E42AFAEFB4
:0E3606003BFB90E373E0FEA3E0FFEAC39EFEF1
:0C361400EB9FFF7A007B00A80808EE2660
:0E362000FEEF0836FFEA0836FAEB0836FB909C
:0E362E00E351EEF0A3EFF0A3EAF0A3EBF0906F
:04363C00E384E4F04F
:0D364000AAE27B00ADE3E42AFAED3BFB902B
:0E364D00E371EAF0A3EBF090E3837401F075F3
:07365B0082E31241747A00C2
:0E36620090DF62E0FB20E4148A030ABB030041
:0E367000500C90000AC002124C56D00280E4AA
:0E367E0090DF62E0FA20E40C7582E7124174DE
:06368C007A017B00800CB6
:0C36920090DF62E0FC20E4F87A007B008E
:0E369E0090E383E06063C002C00390E34DE55B
:0C36AC00082405F8E0F6A3E008F6A3E00F
:0E36B80008F6A3E008F6ACE27D00ABE3E42CDC
:0E36C600FCEB3DFD90E371E0FAA3E0FBECC3EA
:0C36D4009AFAED9BFBE4FCFDE5082405E0
:0E36E000F8EA26FAEB0836FBEC0836FCED089B
:0E36EE0036FD90E34DEAF0A3EBF0A3ECF0A361
:0B36FC00EDF090E383E4F0D003D00277
:0D370700ACE27D00AFE3E42CFCEF3DFD9053
:0E371400E373ECF0A3EDF090E3847401F09009
:0E372200E5F0E0FCA3E0FDA3E0FEA3E0FF0C59
:0C373000BC00090DBD00050EBE00010F1D
:0E373C0090E5F0ECF0A3EDF0A3EEF0A3EFF0BB
:04374A008A828B8361
:06374E00850881D008226D
:0A375400C008858108C082C083C050
:08375E00F0ADD9747FB5050040
:0E376600503290E5E0E0FAA3E0FBA3E0FCA304
:0E377400E0FD0ABA00090BBB00050CBC000109
:013782000D39
:0E37830090E5E0EAF0A3EBF0A3ECF0A3EDF08C
:093791001233C690000002390257
:05379A007404B50500F8
:0E379F00403290E5DCE0FAA3E0FBA3E0FCA3DF
:0E37AD00E0FD0ABA00090BBB00050CBC0001D0
:0137BB000D00
:0E37BC0090E5DCEAF0A3EBF0A3ECF0A3EDF057
:0937CA001233C69000000239021E
:0D37D3008D067F00EE24FEFEEF34FFFFE5C3
:0C37E0000824FCF8C3E69E08E69F503267
:0E37EC0090E5D8E0FAA3E0FBA3E0FCA3E0FD2B
:0D37FA000ABA00090BBB00050CBC00010D54
:0E38070090E5D8EAF0A3EBF0A3ECF0A3EDF00F
:093815001233C6900000023902D2
:04381E001D1D7E00EE
:04382200EEB50500FA
:0C382600501FC005A80808EE26FFE408AB
:0E38320036FD0886028F828D838AF0E5D9125A
:0738400044CB0ED00580DB34
:0E384700E5D924D3FAE5D9FB30E75DEA3395E5
:0E385500E0FCC003C005C002C004758204126E
:0E3863004BCE15811581D005D00353037F7A1B
:0E38710000C005C003C002758203124BCE15C5
:0E387F00811581D00590E5F4E0FAA3E0FBA3EB
:0E388D00E0FCA3E0FE0ABA00090BBB00050C2C
:04389B00BC00010E5E
:0E389F0090E5F4EAF0A3EBF0A3ECF0A3EEF05A
:0238AD00803168
:0E38AF0090E5E4E0FAA3E0FBA3E0FCA3E0FE5A
:0D38BD000ABA00090BBB00050CBC00010E8F
:0E38CA0090E5E4EAF0A3EBF0A3ECF0A3EEF03F
:0838D8001233C69000008022AB
:0E38E00090DF62E0FA53020CBA040E90DF5340
:0B38EE00E0FA7007C0051233C6D005D9
:0938F90053E9DF7A008D828A8315
:06390200850881D00822B7
:05390800AA82BA0B00C9
:07390D004007741AB5020027
:0239140050045D
:043916007582FF2295
:0E391A007582FFC0021241747582E51241747D
:0E392800D0028A037C00EB24F5FBEC34FFFC9C
:0E393600C002C003C0049000051244E4AD823C
:0E394400AE83158115818D038E0474652BFBF7
:0D39520074013CFC43044090DF10ECF09049
:0E395F00DF11EBF07582E2124174D0028A8211
:01396D002237
:07396E00AA827464B5020097
:0639750050047582FF22E0
:0E397B00EA75F01FA4FBACF0C0027464C0E05B
:0E398900E4C0E08B828C8312791EAD82AE8387
:0E39970015811581D0028D038E0474602BFB08
:0D39A50074A13C90DF0AF090DF0BEBF09076
:0739B200E331EAF08A8222F2
:0E39B90090E332E0FA20E73490DF4F747FF0A5
:0E39C70090DF0674D2F090E33274804AF090E4
:0739D500DF17E0FA54F7F0E0
:0839DC00E5E930E7FB53BEFBF7
:0E39E400E5BE30E6FB7582E21241747582E6A4
:0339F2001241740B
:0E39F500AAE27B00ADE37C00EC2AFAED3BFB7E
:0E3A030090E373EAF0A3EBF090E3847401F01B
:043A110090000122FE
:0D3A15007582FF1241747582E512417490B4
:0D3A2200DF17E0FA4408F090E332E4F09082
:0E3A2F00E384E0604B90E351E0FAA3E0FBA3D8
:0E3A3D00E0FCA3E0FDAEE27F00A9E3E42EFE74
:0E3A4B00E93FFF90E373E0F8A3E0F9EEC398C3
:0E3A5900FEEF99FFE4F8F9EE2AFAEF3BFBE8E6
:0E3A67003CFCE93DFD90E351EAF0A3EBF0A337
:0A3A7500ECF0A3EDF090E384E4F020
:043A7F009000012290
:0A3A8300C008858108AA82AB839079
:0C3A8D00DF4BEBF090DF4CEAF0E5082482
:0C3A9900FCF890DF4D08E6F0E50824FC86
:0C3AA500F886027B0090DF4EEAF0E50896
:0E3AB10024F9F8B6000A08B6000608B60002AE
:023ABF00803154
:063AC1007D437EDF7F0063
:033AC700BF080035
:0C3ACA005026E50824F9F8EF26FAE4087D
:0E3AD60036FB0886048A828B838CF0126CE427
:0E3AE400FA8D828E83F0A3AD82AE830F80D563
:033AF200D00822D7
:0A3AF500C0088581087A007582E29E
:0E3AFF00C002124174900040124C56D002E5F5
:093B0D000824FDF8B60002804511
:0C3B1600E50824FDF8B6014790DF62E0EE
:083B2200FB30E0317B017C0067
:083B2A00EB60387401B50400E2
:043B320050027B00C2
:0E3B3600900100C002C003C004124C56D0041F
:0E3B4400D003D00290DF62E0FD20E0047B00A1
:023B52007A01F6
:033B54000C80D30F
:043B57007A01800A65
:0A3B5B0090DF62E0FB20E0027AFF39
:0C3B6500EA3395E0FB8A828B83D00822B3
:0B3B7100E582FA60067582E9024174EB
:063B7C007582E8024174AD
:01A9C3000093
:0E3B820075E409D2B9E5F120E60543FD08809F
:013B90000331
:033B910043FE02EE
:073B940075E64453D8BF227F
:0C3B9B00AA82AB838ADC8BDD43E640226B
:0C3BA700C020C0E0C0F0C082C083C0029B
:0E3BB300C003C004C005C006C007C000C001AA
:0E3BC100C0D075D000C2B9AAE27B00ADE3E42B
:0E3BCF002AFAED3BFB90E369EAF0A3EBF090DD
:0E3BDD00E37F7401F053E4BF53E6BF1222DF12
:0E3BEB0090E37FE0604B90E33DE0FAA3E0FB47
:0E3BF900A3E0FCA3E0FDAEE27F00A9E3E42E12
:0E3C0700FEE93FFF90E369E0F8A3E0F9EEC3A9
:0E3C150098FEEF99FFE4F8F9EE2AFAEF3BFB78
:0E3C2300E83CFCE93DFD90E33DEAF0A3EBF048
:0B3C3100A3ECF0A3EDF090E37FE4F0C3
:0E3C3C00D2B9D0D0D001D000D007D006D0052C
:0E3C4A00D004D003D002D083D082D0F0D0E0DE
:033C5800D0203247
:08009200799BE94400601B7A30
:05009A000190A9797836
:03009F00867593D0
:0A00A200ECE493F2A308B800020595
:0800AC0093D9F4DAF27593FF19
:043C5B007A007B0070
:0E3C5F00C3EA940CEB64809480504C8A04EB12
:0D3C6D00CC25E0CC33CC25E0CC33FDEC249D
:0A3C7A0035FCED34E3FD8A06EBCEC5
:0C3C840025E0CE33FFEE2465F582EF341E
:0C3C9000E3F583E4F0A3F08C828D83E464
:0C3C9C00F0A3F0A3F0A3F0EA247DF58271
:0C3CA800EB34E3F583E4F00ABA00AC0B47
:023CB40080A9E5
:013CB60022EB
:0A3CB700C008858108C082C083E5C3
:0A3CC10081240AF581A80808E62412
:0A3CCB007DFC08E634E3FD8C828DD9
:073CD50083E07003023D953E
:0D3CDC00ACE27D00AFE3E42CFCEF3DFDE524
:0A3CE900082403F8A60408A605A8A5
:0C3CF3000808860608E6CE25E0CE33CE99
:0B3CFF0025E0CE33FFEE2435FEEF344D
:0A3D0A00E3FF8E828F83E508240595
:0E3D1400F8E0F6A3E008F6A3E008F6A3E00846
:0C3D2200F6A80808860208E6CA25E0CAD8
:0A3D2E0033FBE5082409F8EA2465D8
:0A3D3800F6EB34E308F6E508240971
:0C3D4200F88682088683E0FCA3E0FDE523
:0C3D4E00082403F8E6C39CFC08E69DFD79
:0C3D5A00E4FAFBE5082405F8EC26FCED7B
:0E3D66000836FDEA0836FAEB0836FB8E828F2F
:0D3D740083ECF0A3EDF0A3EAF0A3EBF0E583
:0A3D8100082409F88682088683E50D
:0A3D8B00082403F9E7F0A309E7F0AC
:0C3D9500A80808860208E6CA25E0CA3328
:0C3DA100CA25E0CA33FBEA2435F582EBAA
:0C3DAD0034E3F583E0FAA3E0FBA3E0FCA4
:0C3DB900A3E08A828B838CF0850881D007
:023DC5000822D2
:073DC700900000E4F5F0227A
:0A3DCE00C008858108AA82E583CAB7
:0C3DD80025E0CA33CA25E0CA33FBEA2408
:093DE40035F582EB34E3F583E5CB
:0C3DED000824FAF8E6F0A308E6F0A308AA
:093DF900E6F0A308E6F0D0082270
:0A3E0200C008E581F508240AF581E7
:093E0C00E5082403F8E4F608F6C9
:0C3E1500E5082403F8C3E6940C08E664FA
:083E21008094804003023F067B
:0A3E2900E5082403F8E6247DFC08F8
:0C3E3300E634E3FD8C828D83E070030216
:023E3F003EF84B
:0D3E4100ACE27D00AFE3E42CFCEF3DFDA8FA
:0A3E4E000808A60408A605E50824EC
:0E3E580003F8860608E6CE25E0CE33CE25E040
:0A3E6600CE33FFEE2435FEEF34E307
:0C3E7000FF8E828F83E5082405F8E0F641
:0D3E7C00A3E008F6A3E008F6A3E008F6E5D1
:0C3E8900082403F8860208E6CA25E0CAF7
:0A3E950033FBE5082409F8EA246570
:0A3E9F00F6EB34E308F6E508240909
:0C3EA900F88682088683E0FCA3E0FDA8F8
:0C3EB5000808E6C39CFC08E69DFDE4FA4A
:0C3EC100FBE5082405F8EC26FCED0836B3
:0E3ECD00FDEA0836FAEB0836FB8E828F83EC96
:0C3EDB00F0A3EDF0A3EAF0A3EBF0E50883
:0C3EE7002409F88682088683A90809E7F0
:053EF300F0A309E7F057
:0B3EF800E5082403F806B600020806E7
:033F0300023E1566
:063F0600850881D00822AD
:063F0C00AA82AB83ACF0B9
:0E3F12008A828B838CF0126CE4FD60180ABA70
:033F200000010B92
:0E3F23008D82C002C003C004126AD0D004D048
:053F310003D00280DC5A
:013F36002268
:0E3F3700E582FAC4540F90A8C693F582C0022A
:0E3F4500126AD0D002740F5A90A8C693F5826B
:033F5300026AD02F
:043F5600AA827B8040
:0B3F5A00EB6025EB5AFCE4BC00010406
:043F6500FCB40100A7
:0D3F6900E43390A8D793F582C002C0031284
:0C3F76006AD0D003D002EBC313FB80D84C
:013F8200221C
:0E3F8300758242126AD0758261126AD0758210
:0E3F91006E126AD075826B126AD075823A1277
:0C3F9F006AD0758220126AD0859F8212C1
:083FAB003F5675820A026AD03C
:0EA8C6003031323334353637383961626364ED
:03A8D400656600B6
:03A8D7003031001D
:0E3FB30090A8DAE493FAA3E493FBC002C003E3
:0E3FC1008A828B83120083D003D00290A9273E
:0E3FCF00E493FAA3E493FBC002C0038A828B42
:0E3FDD0083120083D003D00290A905E493FA6A
:0D3FEB00A3E493FBC002C0038A828B831203
:0E3FF8000083D003D00290A919E493FAA3E449
:0E40060093FBC002C0038A828B83120083D01A
:0440140003D00222B1
:0A401800C008858108AA82AB83ACC2
:0E402200F074022AFDE43BFE8C078D828E8333
:0C4030008FF0E50824FCF8E61244CBA356
:0E403C0008E61244CBC002C003C004124CA818
:0E404A00AD82AE83D004D003D0028A828B8375
:0C4058008CF0ED1244CBA3EE1244CBD050
:02406400082230
:0E406600AA82AB83ACF0126CE4FDA3126CE4F2
:0E407400FE74022AFFE43BF88C018F828883E1
:0E40820089F0126CE4FFA3126CE4F8EF2DFD40
:0E409000E83EFE8A828B838CF0ED1244CBA3B7
:04409E00EE0244CB1F
:0D40A200AA82AB83ACF0C002C003C00412C0
:0E40AF004CA8AD82AE83D004D003D0028A822A
:0D40BD008B838CF0ED1244CBA3EE0244CBBC
:0A40CA00C008858108C082C083C0D1
:0C40D400F0124CA8AD82AE83A80808864C
:0D40E000820886830886F0126CE4FFA312AC
:0E40ED006CE4FAEDC39FFDEE9AFE0DBD0001DE
:0140FB000EB6
:0C40FC00A80808740226FAE40836FB0845
:0E41080086048A828B838CF0126CE4FAA31278
:0E4116006CE4FBC3EA9DEB9EE433FD3395E0C1
:0A412400FA8D828A83850881D00895
:01412E00226E
:0E412F00AA82AB83ACF0126CE4FDA3126CE428
:0E413D00FE74022AFAE43BFB8A828B838CF02C
:0E414B00126CE4FAA3126CE4FBEA2DFDEB3ECD
:0E415900FEC005C006124CA8AA82AB83D00699
:0D416700D005EDC39AFDEE9B8D82F58322FD
:05417400AA82BAE00080
:074179004032BAE2028008A7
:05418000BAE302800318
:03418500BAE52276
:0D41880090DF53E0FB8AE1900002C00312BB
:0E4195004C56D00390DF53E0FCEBB504012242
:0741A30075E1E675E1E6227B
:0341AA008AE12285
:0C41AD00BADE1053E9FD75E1DF75E1FE9C
:0741B900E5E920E10480F9B3
:0241C0008AE192
:0141C20022DA
:0341C3000234BF04
:0A41C600C008858108AA82AB83AC13
:0C41D000F0E50824FCF8E6C0E008E6C0BA
:0E41DC00E08A828B838CF0123432AA82AB838D
:0B41EA00158115818A828B83D008228A
:0341F50002355D33
:0341F800023A1573
:0341FB000239B9CD
:0A41FE00C008858108AA82AB83ACDB
:0C420800F0E50824FCF8E6C0E008E6C081
:0E421400E08A828B838CF01234321581158182
:0642220012355DD00822F8
:0A422800C008858108AA82AB83ACB0
:0C423200F0E50824FCF8E6C0E008E6C057
:0E423E00E08A828B838CF0123754AA82AB8305
:0B424C00158115818A828B83D0082227
:0E425700E4C0E0758200123AF5AA82AB83152E
:06426500818A828B832296
:03426B000234A872
:03426E000234B067
:02A8DA00C34178
:02A8DC00C64173
:02A8DE00F54142
:02A8E000FE4137
:02A8E20028420A
:02A8E4005742D9
:02A8E6006B42C3
:02A8E8006E42BE
:02A8EA00FB4130
:02A8EC00F84131
:0A427100C008858108C082C083C028
:0A427B00F00581E5082404F8760040
:08428500E5082404F8B602006C
:0A428D005045A80808E5082404F9CC
:0C429700E726FEE40836FF088602E50872
:0C42A30024FBF88603088604088605E565
:0C42AF00082404F8E62BFBE43CFC8B82A6
:0E42BB008C838DF0126CE4FB8E828F838AF070
:0B42C9001244CBE5082404F80680B185
:0642D400850881D00822DC
:0A42DA00C008858108C082C083C0BF
:0A42E400F00581E5082404F87600D7
:0842EE00E5082404F8B6020003
:0A42F6005051A80808E5082404F957
:0C430000E726FEE40836FF088602E50808
:0C430C0024FBF88603088604088605E5FB
:0C431800082404F8E62BFBE43CFC8E8239
:0E4324008F838AF0126CE4FE8B828C838DF006
:0A433200126CE4FBEEB503028005F7
:05433C00900000800B61
:08434100E5082404F80680A53C
:03434900900001E0
:06434C00850881D0082263
:0D435200AA82AB83ACF0C002C003C004908F
:0E435F00E38975F000124271158115811581F8
:01436D00222D
:02A8EE00000068
:0A436E00C008E581F5082405F5817B
:0C437800AA82AB83ACF07D007E00A80898
:0543840008E4F608F654
:0A438900C005C006A80808E50824D6
:0E43930003F9E62AF708E63B09F709A704E557
:0C43A100082403F886820886830886F052
:0E43AD00126CE41818F6A3126CE408F6A312C2
:0C43BB006CE408F6E5082403F8B6000ED8
:0E43C70008B6000A08B60006D006D0058048E9
:0E43D500D006D005C002C003C004C005C0065B
:0C43E300E4C0E0C0E0C0E0E5082403F8FE
:0E43EF0086820886830886F012268E158115B8
:0E43FD00811581D006D005D004D003D002A8CF
:0C440B000808740326F6E40836F60DBD20
:0344170000010E93
:03441A00024389D1
:06441D00850881D0082291
:0A442300C008E581F5082405F581C5
:0C442D00AA82AB83ACF07D007E00A808E2
:0544390008E4F608F69E
:0A443E00C005C006A80808E5082420
:0E44480003F9E62AF708E63B09F709A704E5A1
:0C445600082403F886820886830886F09C
:0E446200126CE41818F6A3126CE408F6A3120C
:0C4470006CE408F6E5082403F8B6000E22
:0E447C0008B6000A08B60006D006D005803B40
:0C448A00D006D005E5082403F88682085F
:0E44960086830886F0C002C003C004C005C0C3
:0E44A40006122B38D006D005D004D003D0026B
:0C44B200A80808740326F6E40836F60D8E
:0444BE00BD00010E2E
:0344C20002443E73
:0644C500850881D00822E9
:0E44CB0020F71030F6118883A88220F507F63E
:0544D900A883758300BB
:0144DE0022BB
:0344DF00F280F771
:0244E200F022C6
:0A44E400C008858108C082C083E58E
:0A44EE00812407F581AA080AE508F9
:0C44F8002403F8A602087600087640E5D0
:0A4504000824FCFA7B007C40E50867
:0C450E002406F8E5082403F987820987D9
:0E451A00830987F0126CE4FD8A828B838CF09B
:0C452800126CE4FE8DF0A4F608A6F0E58D
:0C45340008240604F886070ABA00010BF0
:0E4540008A828B838CF0126CE48DF0A4FDE572
:0C454E00082403F9740127FAE40937FB84
:0E455A000987048A828B838CF0126CE4FA8A43
:0C456800F0EEA42D2FF6E5082406F886DE
:0C457400020886038A828B83850881D0B0
:0245800008220F
:014582002216
:0E4583007A00C002122430AB82D002EB30E688
:03459100027A04A7
:07459400EB30E703430201D5
:03459B008A8222EF
:0E459E00AA82C002122430AB82D00290E38BBE
:0E45AC00EBF0EA30E20990E38B74404BF080B4
:0145BA0007F9
:0745BB0090E38B74BF5BF07D
:0E45C200EA30E00A90E38BE0FA4480F08008D3
:0845D00090E38BE0FA547FF048
:0945D80090E38BE0F5820223E57B
:0E45E10090E3C6E4F0A3F090E3C4E4F0A3F08E
:0E45EF0090E3C87430F090ECD1E0FAA3E0FB4A
:0E45FD00A3E0FC90E47B74302AF0E43BA3F0D2
:06460B00A3ECF0024AA737
:0746110090E3C87430F022B1
:0A461800C008858108C082C083C07D
:0C462200F01245E1E50824FCF8C37480A8
:0C462E0096E4089650067D807E00800A0D
:0A463A00E50824FCF8860508860652
:0E46440090E47BE0FFA3E0FAA3E0FBC005C01A
:0C46520006C005C006A80808E6C0E00885
:0E465E00E6C0E008E6C0E08F828A838BF0128F
:0D466C005745E58124FBF581D006D005906F
:0C467900E3C4EDF0A3EEF08D828E83858B
:054685000881D00822AD
:0A468A00C008E581F5082407F5815A
:0D469400124A21E5828583F045F0604C124A
:0C46A1004A6FA808080808A68208A68333
:0E46AD00124A5DAC82AD83AEF090ECD1E0FF1E
:0E46BB00A3E0FAA3E0FB74302FFFE43AFAE527
:0C46C900082403F8E6C0E008E6C0E0C0EA
:0E46D50004C005C0068F828A838BF012574501
:0946E300E58124FBF58102478FFB
:0E46EC0090E3C6E0FAA3E0FB4A700302478F9A
:0E46FA00124A6FAA82AB8374302AFAE43BFBAB
:08470800A808087630087600CD
:0C471000A80808C3E69A08E664808BF055
:0E471C0063F08095F05065C002C00390ECD1B0
:0C472A00E0FEA3E0FFA3E0FAA80808E509
:0C473600082405F9E62EF708E63F09F715
:0C47420009A70290E3C6E0FBA3E0FCA87E
:0C474E000808E62BFB08E63CFCEB2EFE06
:0E475A00EC3FFF8E828F838AF0126CE4FEE546
:0C476800082405F886820886830886F085
:0C477400EE1244CBA8080806B6000208AC
:014780000632
:07478100D003D00202471033
:0747880090E3C6E4F0A3F08A
:06478F00850881D008221C
:0A479500C008858108C082C083C0FF
:0E479F00F090E3C8E0FDFE7F007430C39EFE84
:0E47AD00E49FFF90ECD1E0FAA3E0FBA3E0FC58
:0E47BB00ED2AFDE43BFBC006C007C005C003AD
:0C47C900C004A8080886820886830886C1
:0E47D500F0125745E58124FBF58190E3C8E022
:0E47E300FB7C007430C39BFBE49CFC8B828C3F
:0747F10083850881D0082236
:0A47F800C008858108C082C083C09C
:0E480200F0E5812408F58190E3C8E0FDFE7F1B
:0C48100000E5082404F87430C39EF6E4B0
:0C481C009F08F690E3C4E0FAA3E0FBE57F
:0C482800082404F8EA26FAEB0836FBC36B
:0D48340074809AE49B50069000000248FF3B
:0E4841007430C39EFEE49FFF90ECD1E0FAA31A
:0E484F00E0FBA3E0FCED2AFAE43BFBC006C050
:0C485D0007C002C003C004A8080886823F
:0E4869000886830886F0125745E58124FBF58A
:0E4877008190E3C6E0FAA3E0FB90E47BE0FC56
:0E488500A3E0FDA3E0FEEA2CFAEB3DFB8E075C
:0A489300A80808E5082406F97430AF
:0E489D0026F7E4083609F70809E6F790E3C8A5
:0C48AB00E0FC7D00E5082406F8E6C39C54
:0E48B700FC08E69DFD08860690E3C4E0C0E024
:0E48C500A3E0C0E0C002C003C0078C828D8358
:0E48D3008EF0125745E58124FBF58190E3C875
:0D48E100E0FA7B007430C39AFAE49BFB9070
:0E48EE00E3C4E0FCA3E0FDEC2AFAED3BFB8AFC
:0348FC00828B8329
:0648FF00850881D00822AB
:0E490500AA82AB8390E3C8E0FC7D00C3EC9A6D
:0E491300ED64808BF063F08095F0402BC002C5
:0E492100C003124A87AC82AD83D003D002EAF5
:0E492F002CFCEB3DFDC374809CE49D400E907B
:0D493D00E3C8E090E3C8C39AF090000122A7
:04494A0090000022B7
:0E494E00AA8290E3C8E0FB90E3C8EA2BF022B7
:0E495C00AA82AB8390E3C4E0FCA3E0FD8A06D0
:0D496A008B07C3EC9EED9F500490000022CF
:0E49770090E3C6E0FEA3E0FF90E3C6EA2EF058
:0E498500EB3FA3F090E3C4ECC39AF0ED9BA3CC
:05499300F0900001227C
:0C499800AA83E58290E3C4F0A3EAF022B9
:0E49A40090E3C6E0FAA3E0FB74302AFAE43B8D
:0E49B200FB90ECD1E0FCA3E0FDA3E0FEEA2CBC
:0E49C000FAEB3DFB8E077C008A828B838CF025
:0149CE0022C6
:0E49CF0090ECD1E0FAA3E0FBA3E090E3C8E097
:0E49DD002AFAE43BFB7C008A828B838CF0225A
:0A49EB00C008858108AA82AB83ACE6
:0E49F500F0C002C003C0041245E1D004D0039C
:0E4A0300D00290E47BEAF0A3EBF0A3ECF0E528
:0C4A11000824FCF890E3C4E6F008A3E6DB
:044A1D00F0D00822AB
:0E4A210090ECD1E0FAA3E0FBA3E0FC74302A95
:0E4A2F00FAE43BFB90E47BE0FDA3E0FEA3E095
:0E4A3D00FFEDB5020CEEB50308EFB5040474EE
:034A4B00018001E6
:014A4E00E483
:044A4F00FAB40100B4
:0A4A5300E433FA7B008A828B832291
:0E4A5D0090E47BE0FAA3E0FBA3E0FC8A828BEE
:044A6B00838CF02226
:0C4A6F0090E3C4E0FAA3E08A82F5832201
:0C4A7B0090E3C8E0FA7430C39AF5822280
:0E4A8700124A7BAA827B00C002C003124A6F53
:0E4A9500AC82AD83D003D002EC2AFAED3B8A4E
:044AA30082F58322F3
:044AA7007A007B0016
:0E4AAB00C3EA9418EB64809480501E8A04EBDA
:0C4AB900CC25E0CC33FDEC248CF582ED24
:0C4AC50034E3F583E4F0A3F00ABA00DA51
:034AD1000B80D780
:044AD4007A007B00E9
:0E4AD800C3EA9404EB64809480503D8A04EBA2
:0C4AE600CC25E0CC33FDEC24BCFCED340E
:0A4AF200E3FD7E00C002C00374EE75
:0C4AFC00C0E074A8C0E07480C0E08C82B0
:0E4B08008D838EF0124271158115811581D0BA
:0A4B160003D0020ABA00BB0B80B8FE
:014B20002272
:0A4B2100C008858108AA82AB83ACAE
:0C4B2B00F07430C0E0E4C0E0748CC0E026
:0C4B370074E3C0E0E4C0E08A828B838C51
:0C4B4300F0125745E58124FBF581E508E0
:0E4B4F0024FBF886020886030886047408C05A
:0A4B5D00E0E4C0E074BCC0E074E3C3
:0E4B6700C0E0E4C0E08A828B838CF0125745D8
:094B7500E58124FBF581D0082242
:0A4B7E00C008858108AA82AB83AC51
:0E4B8800F07430C0E0E4C0E0C002C003C0041E
:0E4B960090E38C75F000125745E58124FBF585
:0C4BA400817408C0E0E4C0E0E50824FBD8
:0D4BB000F8E6C0E008E6C0E008E6C0E090CE
:0E4BBD00E3BC75F000125745E58124FBF5813D
:034BCB00D00822ED
:0A4BCE00C008858108E582258224D5
:094BD8008CF582E434E3F583E579
:0B4BE1000824FCF8E6F0A308E6F090C2
:054BEC000001D00822C9
:0A4BF100E5822582248CF582E4346D
:0C4BFB00E3F583E0FAA3E08A82F5832250
:0A4C0700C008858108E58224E82535
:0A4C1100E024BCFAE434E3FB7C006D
:0C4C1B00E50824FBF8E6C0E008E6C0E075
:0E4C270008E6C0E08A828B838CF01242711581
:0B4C35008115811581900001D008223C
:0B4C4000E58224E825E024BCFAE434FF
:0B4C4B00E3FB7C008A828B838CF0224C
:03A9C400C9E300E4
:084C5600AA82AB837C007D0003
:084C5E00C3EC9AED9B4001221A
:094C6600000CBC00F30D024C5ED1
:0E4C6F00AA82AB83C002C003124CA8AC82AD77
:054C7D0083D003D0020A
:0E4C8200C002C003C004C005124CA8AE82AF31
:0E4C900083D005D004D003D002EEC39CFEEF0B
:0A4C9E009DFFC3EE9AEF9B40DB225E
:0C4CA80090ECD4E0FAA3E08A82F58322AD
:0E4CB40090ECD6E0FAA3E0FB7C007D008A8243
:064CC2008B838CF0ED2253
:0E4CC80075C6B0AA957B007C007D00AE967F7D
:0E4CD60000780088018F008E07E42AFAEF3B79
:0E4CE400FBE83CFCE93DFDAE977F008F018EA2
:0E4CF20000E4FF2AFAEF3BFBE83CFCE93DFD45
:0E4D000074012BFBE43CFCE43DFD90E47EEAF4
:0E4D0E00F0A3EBF0A3ECF0A3EDF08C978B96E6
:064D1C008A9543A8202245
:0C4D2200C020C0E0C0F0C082C083C0020E
:0E4D2E00C003C004C005C006C007C000C0011D
:0E4D3C00C0D075D000C2AFAAE27B00ADE3E4A8
:0E4D4A002AFAED3BFB90E369EAF0A3EBF09050
:0E4D5800E37F7401F0AA957B007C007D00AE25
:0E4D6600967F00780088018F008E07E42AFAFD
:0E4D7400EF3BFBE83CFCE93DFDAE977F008F76
:0E4D8200018E00E4FFFE2AFAEF3BFBE83CFC4A
:0E4D9000E93DFD74012BFBE43CFCE43DFD908D
:0E4D9E00E47EEAF0A3EBF0A3ECF0A3EDF08CC2
:0E4DAC00978B968A9590ECD4E02401F0A3E05A
:0E4DBA003400F090ECD4E0FAA3E0FBEA547F62
:0E4DC800700C90ECD6E02401F0A3E03400F073
:0D4DD600121EB8E5828583F045F0602712BB
